:100000000C94F8010C9420020C9420020C94200211
:100010000C9420020C9420020C9420020C942002D8
:100020000C9420020C9420020C945D0E0C94DD0EB6
:100030000C9420020C9420020C9420020C942002B8
:100040000C9420020C9420020C9420020C942002A8
:100050000C9420020C9420020C9420020C94B508FD
:100060000C9420020C9491060C946B060C942002C4
:100070000C9420020C9420020C9420020C94200278
:100080000C9420020C9420020C9420020C94200268
:100090000C9420020C9420020C9420020C94200258
:1000A0000C9420020C9420020C9420029E03A103C5
:1000B000900394039A03C203C203C203A503A903D6
:1000C000AD03B303B703C203BD034E414E494E49CE
:1000D0005459494E46CDCCCC3D0AD7233C17B7D115
:1000E0003877CC2B329595E6241FB14F0A000020BB
:1000F000410000C84200401C4620BCBE4CCA1B0E3A
:100100005AAEC59D7400407A10F35A00A0724E1882
:10011000090010A5D4E80000E87648170000E40BB9
:1001200054020000CA9A3B000000E1F5050000807F
:10013000969800000040420F000000A086010000D9
:1001400000102700000000E8030000000064000029
:100150000000000A00000000000100000000002C68
:1001600076D888DC674F0823DFC1DFAE59E1B1B72D
:1001700096E5E3E453C63AE651997696E8E6C284FA
:1001800026EB898C9B62ED407C6FFCEFBC9C9F4012
:10019000F2BAA56FA5F490055A2AF75C936B6CF937
:1001A000676DC11BFCE0E40D47FEF520E6B500D00D
:1001B000ED902E0300943577050080841E08000022
:1001C000204E0A000000C80C333333330F986E12F0
:1001D000831141EF8D2114893BE65516CFFEE6DBF6
:1001E00018D1844B381BF77C1D901DA4BBE4242040
:1001F0003284725E228100C9F124ECA1E53D270022
:10020000000000240027002A002D0030000000001C
:1002100000250028002B002E0031000000000023E4
:1002200000260029002C002F000404040404030409
:100230000502020202040302020202060606060684
:100240000604040202020404040802011040804073
:1002500010204080408008020401804020100201EC
:10026000108010204040200000000200090F000014
:10027000030401000C00000000000000000000006A
:1002800000000000000072756E2D6272696467657F
:100290000A000A000A00437265616E646F20646997
:1002A000726563746F72696F203A202F746D702FBE
:1002B00044544831312F73656E736F722E6462003F
:1002C00053514C6974652063726561646120636F8A
:1002D0007272656374616D656E7465004552524F4C
:1002E000522043524541544500656E747261004589
:1002F00052524F522044524F5000437265616E6417
:100300006F2073716C69746520636F6E20727574F1
:10031000613A202F746D702F44544831312F73652A
:100320006E736F722E6462000A496E74726F647528
:100330006369656E646F206461746F7320656E20FD
:100340006C61207461626C612073656E736F7220E2
:100350007369747561646120656E3A202F746D70E5
:100360002F44544831312F73656E736F722E64625F
:1003700000070605040100080A0B0C0D09080B0014
:10038000020202010009040000010202000005242B
:1003900000100105240101010424020605240600C1
:1003A000010705810310004009040100020A000052
:1003B0000007050202400000070583024000000418
:1003C00003090412010002EF0201404123418000B1
:1003D000010102030141726475696E6F204C4C4348
:1003E0000041726475696E6F2059756E0000791E48
:1003F00011241FBECFEFDAE0DEBFCDBF26E0ACE9AF
:10040000B5E001C01D92AD3EB207E1F715E0A0E0F6
:10041000B1E0E6E7FFE402C005900D92AC39B10708
:10042000D9F711E0C8EFD1E004C02197FE010E9486
:100430009325C73FD107C9F70E9489140C94B927A7
:100440000C9400004091C4055091C5052091C2054F
:100450003091C30542175307B4F49091E8009570AA
:10046000E1F39091E80092FD19C08093F100809132
:10047000C4059091C50501968F739927892B19F4AE
:100480008EEF8093E8008091C4059091C505019698
:100490009093C5058093C40581E0089580E0089598
:1004A000CF92DF92EF92FF920F931F93CF93DF9340
:1004B0006C017A018B01C0E0D0E0CE15DF0589F038
:1004C000D8016D918D01D601ED91FC910190F081E3
:1004D000E02DC6010995892B11F47E0102C02196F9
:1004E000ECCFC701DF91CF911F910F91FF90EF905B
:1004F000DF90CF900895FC01538D448D252F30E07F
:10050000842F90E0821B930B541710F0CF96089520
:1005100001970895FC01918D828D981761F0828D6D
:10052000DF01A80FB11D5D968C91928D9F5F9F7327
:10053000928F90E008958FEF9FEF0895FC01918DC9
:10054000828D981731F0828DE80FF11D858D90E036
:1005500008958FEF9FEF0895FC01918D228D892FD3
:1005600090E0805C9F4F821B91098F7399270895BB
:100570008BE196E00E94AC0221E0892B09F420E097
:10058000822F0895FC01848DDF01A80FB11DA35AAD
:10059000BF4F2C91848D90E001968F739927848FA3
:1005A000A689B7892C93A089B1898C9180648C939A
:1005B000938D848D981306C00288F389E02D808185
:1005C0008F7D80830895EF92FF920F931F93CF93B7
:1005D000DF93EC0181E0888F9B8D8C8D981305C093
:1005E000E889F989808185FD24C0F62E0B8D10E005
:1005F0000F5F1F4F0F731127E02E8C8DE8120CC078
:100600000FB607FCFACFE889F989808185FFF5CF1D
:10061000CE010E94C202F1CF8B8DFE01E80FF11DC9
:10062000E35AFF4FF0820B8FEA89FB898081806259
:1006300007C0EE89FF896083E889F9898081806439
:10064000808381E090E0DF91CF911F910F91FF9027
:10065000EF900895CF93DF93EC01888D8823C9F044
:10066000EA89FB89808185FD05C0A889B9898C91BB
:1006700086FD0FC00FB607FCF5CF808185FFF2CF56
:10068000A889B9898C9185FFEDCFCE010E94C20265
:10069000E7CFDF91CF91089580E090E0892B29F09A
:1006A0000E94B80281110C9400000895CF93DF934B
:1006B0001F92CDB7DEB76983DC01ED91FC9102801A
:1006C000F381E02D41E050E0BE016F5F7F4F09955F
:1006D0000F90DF91CF910895FC018485958597FD5A
:1006E0000BC09FB7F89482E08093E9008091F200FC
:1006F0009FBF90E0019608959FB7F89482E08093A1
:10070000E9008091F2009FBF90E0089590E0FC0125
:100710003197EF30F105B0F5EA5AFF4F0C9493256D
:10072000809180008F7703C0809180008F7D8093BF
:100730008000089580918000877FF9CF84B58F77FE
:1007400002C084B58F7D84BD0895809190008F771D
:1007500007C0809190008F7D03C080919000877FBB
:100760008093900008958091C0008F7703C080919E
:10077000C0008F7D8093C00008958091C200877F64
:100780008093C2000895CF93DF93282F30E0F901C2
:10079000E959FD4F8491F901E85BFD4FD491F901CE
:1007A000E75DFD4FC491CC2391F081110E94860337
:1007B000EC2FF0E0EE0FFF1FE55EFD4FA591B49129
:1007C000EC91ED2381E090E021F480E002C080E034
:1007D00090E0DF91CF9108953FB7F8948091A10503
:1007E0009091A205A091A305B091A40526B5A89B60
:1007F00005C02F3F19F00196A11DB11D3FBFBA2FB3
:10080000A92F982F8827820F911DA11DB11DBC0112
:10081000CD0142E0660F771F881F991F4A95D1F7D7
:10082000089508958F929F92AF92BF92CF92DF92D8
:10083000EF92FF920F931F93CF93DF93CDB7DEB765
:10084000AC970FB6F894DEBF0FBECDBF4C015A0176
:100850006901CE0101967C0188E2D7011D928A953B
:10086000E9F7D401ED91FC910084F185E02DA70119
:10087000C4010995009709F053C01CA61BA61AA62F
:1008800019A6D401ED91FC910284F385E02D9E011F
:10089000275D3F4FAE01455D5F4FB701C40109952C
:1008A0000097F1F50115110539F088E2F701D8013B
:1008B00001900D928A95E1F7A114B10481F08CA505
:1008C000682F782F770F770B072E000C880B990B6A
:1008D0000E943F23F5016083718382839383C11457
:1008E000D10489F08AA5682F782F770F770B072E10
:1008F000000C880B990B0E943F23D6016D937D93CA
:100900008D939C9313978BA59CA5009739F429A5EB
:100910003AA5232B29F48AE690E002C080E090E01B
:10092000AC960FB6F894DEBF0FBECDBFDF91CF916E
:100930001F910F91FF90EF90DF90CF90BF90AF90FD
:100940009F908F9008958F929F92AF92BF92CF9277
:10095000DF92EF92FF920F931F93CF93DF93EC01FF
:100960008B015A016901E881F9810680F781E02D48
:100970000995982EE881F981B801685F7F4F06805C
:10098000F781E02DCE010995F82EE881F981B801B3
:10099000605F7F4F0680F781E02DCE010995882E9C
:1009A000E881F981B801685E7F4F0680F781E02D0C
:1009B000CE010995E82EE881F981B801605E7F4F8C
:1009C0000680F781E02DCE0109959F2D990D980D98
:1009D0009E0D891310C02E2D30E03829F50131838A
:1009E00020834F2D50E0CA019929F601918380831D
:1009F00080E090E002C089E690E0DF91CF911F9106
:100A00000F91FF90EF90DF90CF90BF90AF909F90AD
:100A10008F90089540E050E080E0A7E0B0E0FB0157
:100A20002191BF01FD01E41BF50B01C0220FEA95E6
:100A3000EAF7820F4F5F5F4F4830510581F7089505
:100A4000AF92BF92DF92EF92FF920F931F93CF93DB
:100A5000DF93D62ECA016AE070E00E945D25EB01AB
:100A6000181619060CF4219600E010E083E2A82E77
:100A7000B12CE22EF12C0C171D0764F4F50131970F
:100A8000F1F78D2D0E94C3038E159F0531F40F5F82
:100A90001F4FF1CF8FEF9FEF02C080E090E0DF911A
:100AA000CF911F910F91FF90EF90DF90BF90AF908B
:100AB0000895CF92DF92EF92FF920F931F93CF93FF
:100AC000DF93CDB7DEB728970FB6F894DEBF0FBE21
:100AD000CDBF6A0179011D821E821F82188619828C
:100AE0001A821B821C82DC01ED91FC910280F38151
:100AF000E02D9E012F5F3F4FAE014B5F5F4F099589
:100B00008C01892BB1F4C114D10441F06D817E8137
:100B10008F8198850E942225F6016083E114F104FB
:100B200041F069817A818B819C810E942225D701C5
:100B30006C93C80128960FB6F894DEBF0FBECDBFE8
:100B4000DF91CF911F910F91FF90EF90DF90CF90A9
:100B50000895089580E090E008950E94271490E0A1
:100B600008950C94F213CF93DF931F92CDB7DEB7A5
:100B7000FC018485958597FD05C02FEF3FEF3587F4
:100B800024870BC0CE0101960E94FD13019719F432
:100B9000898190E002C08FEF9FEF0F90DF91CF919E
:100BA00008950F931F93CF93DF931F92CDB7DEB7B6
:100BB0008C01FC018485958597FF0EC0CE010196BE
:100BC0000E94FD13019719F4298130E002C02FEF34
:100BD0003FEFF80135872487F801848595850F90CC
:100BE000DF91CF911F910F910895DF92EF92FF92C5
:100BF0000F931F93CF93DF93D82E8A017B01E40ECE
:100C0000F51EEB01CE15DF0571F0D7FE03C0FE0126
:100C1000849101C088810E94220221968111F2CF25
:100C20008FEF9FEF01C0C801DF91CF911F910F910E
:100C3000FF90EF90DF900895615030F02091F10027
:100C4000FC0120830196F8CF289884E68093C7059D
:100C50000895DC01ED91FC910190F081E02D099463
:100C6000EF92FF920F931F93CF93DF938C017B0141
:100C7000C0E0D0E0F701EC0FFD1F6491662361F046
:100C8000D801ED91FC910190F081E02DC80109950A
:100C9000892B11F02196EECFCE01DF91CF911F91DC
:100CA0000F91FF90EF9008956115710579F0FB01A8
:100CB00001900020E9F73197AF01461B570BDC018B
:100CC000ED91FC910280F381E02D099480E090E0A9
:100CD00008950C9454061F920F920FB60F92112490
:100CE0002F933F934F935F936F937F938F939F9334
:100CF000AF93BF93EF93FF938BE196E00E94C20204
:100D0000FF91EF91BF91AF919F918F917F916F91E3
:100D10005F914F913F912F910F900FBE0F901F90B9
:100D200018951F920F920FB60F9211242F938F9345
:100D30009F93EF93FF93E0912B06F0912C06808117
:100D4000E0913106F091320682FD12C090818091CF
:100D500034068F5F8F7320913506821751F0E09132
:100D60003406F0E0E55EF94F958F8093340601C0BC
:100D70008081FF91EF919F918F912F910F900FBEE6
:100D80000F901F9018951F93CF93DF93282F30E07B
:100D9000F901E959FD4F8491F901E85BFD4FD491C8
:100DA000F901E75DFD4FC491CC23C9F0162F8111E5
:100DB0000E948603EC2FF0E0EE0FFF1FE35FFD4F74
:100DC000A591B4918FB7F894111105C09C91ED2FA6
:100DD000E095E92302C0EC91ED2BEC938FBFDF91FE
:100DE000CF911F910895CF93DF93EC0160E08E8146
:100DF0000E94C30661E08E810E94C30660E08E817E
:100E00000E94C3068BE891E00197F1F7DF91CF9143
:100E10000895CF93DF9390E0FC01E85BFD4F2491B0
:100E2000FC01E75DFD4F8491882361F190E0880F1C
:100E3000991FFC01E150FE4FC591D491FC01E35F85
:100E4000FD4FA591B491611109C09FB7F8948881B5
:100E5000209582238883EC912E230BC0623061F4AD
:100E60009FB7F8943881822F809583238883EC91F3
:100E70002E2B2C939FBF06C08FB7F894E8812E2BA2
:100E800028838FBFDF91CF9108958F929F92AF9269
:100E9000BF92CF92DF92EF92FF926B017C010E9492
:100EA000EC034B015C01C114D104E104F104F1F045
:100EB0000E94EC03DC01CB0188199909AA09BB093E
:100EC000883E9340A105B10570F321E0C21AD10814
:100ED000E108F10888EE880E83E0981EA11CB11C81
:100EE000C114D104E104F10419F7DDCFFF90EF90B4
:100EF000DF90CF90BF90AF909F908F9008958F928A
:100F00009F92AF92BF92CF92DF92EF92FF920F9398
:100F10001F93CF93DF935C016B017A0180911201E3
:100F2000882309F45BC08091C805882309F456C062
:100F30008091A60580FF05C08091E00082608093CB
:100F4000E000E70110E00AEF83E0882E9AE3992E93
:100F50002097D9F10E94271481110AC0015009F489
:100F60003DC061E070E080E090E00E944507F0CF76
:100F7000282F30E0C217D3070CF48C2F4FB7F8940A
:100F80008092E9009091E80095FF1DC0282F30E085
:100F9000C21BD30BF601982F915020F081918093C2
:100FA000F100FACFC20ED31E112319F09092E8007F
:100FB00009C08091E80085FD06C09092E80011E02C
:100FC000209709F010E04FBFC3CF1111C3CF5D9838
:100FD00084E68093C6051E141F0444F081E090E06F
:100FE000F5019383828380E090E001C0C701DF9127
:100FF000CF911F910F91FF90EF90DF90CF90BF9016
:10100000AF909F908F9008958F929F92AF92BF92D2
:10101000CF92DF92EF92FF920F931F93CF93DF93C4
:101020008C01EB017A0188E2DA011D928A95E9F7D9
:1010300061E08C2F0E94090760E08C2F0E94C3069C
:1010400064E170E080E090E00E94450761E08C2F51
:101050000E94C30660E08C2F0E94090783E790E09E
:101060000197F1F7D801ED91FC910480F581E02D15
:1010700020E040E550E0BE01C8010995892BB9F593
:10108000D801ED91FC910480F581E02D21E040E54F
:1010900050E0BE01C8010995892B61F55701B8E2FE
:1010A000AB0EB11C83E2882E912CD801ED91FC91FE
:1010B0000480F581E02D20E042E350E0BE01C8014C
:1010C0000995892BD1F4C12CD12C8C2F0E94C303FC
:1010D0000197B1F4C4010197F1F7BFEFCB1ADB0A16
:1010E000E8E0CE16D10489F787E690E025C084E6D3
:1010F00090E022C085E690E01FC086E690E01CC02C
:1011000081E0B4E0CB16D1040CF480E0F7018193C8
:101110007F01EA15FB0549F6D801ED91FC910480A9
:10112000F581E02D20E042E350E0BE01C8010995C1
:10113000009711F088E690E0DF91CF911F910F9119
:10114000FF90EF90DF90CF90BF90AF909F908F90E7
:1011500008952FB7F89460919D0570919E05809138
:101160009F059091A0052FBF08951F920F920FB673
:101170000F9211242F933F938F939F93AF93BF931D
:1011800080919D0590919E05A0919F05B091A0052D
:1011900030919C0523E0230F2D3720F40196A11DEB
:1011A000B11D05C026E8230F0296A11DB11D209395
:1011B0009C0580939D0590939E05A0939F05B093F9
:1011C000A0058091A1059091A205A091A305B091E1
:1011D000A4050196A11DB11D8093A1059093A205C0
:1011E000A093A305B093A405BF91AF919F918F9158
:1011F0003F912F910F900FBE0F901F901895CF9297
:10120000DF92EF92FF920F931F93CF93DF937C01B6
:101210006C0187E0C80ED11CC0E0D0E0062F10E0C2
:10122000B8010C2E02C0759567950A94E2F76170BB
:10123000F60181916F010E94C3062196C430D10549
:1012400079F7C701DF91CF911F910F91FF90EF9038
:10125000DF90CF900C94F306CF92DF92EF92FF9243
:101260000F931F93CF93DF93EC01F62E642F8C81A5
:101270000E94C3068D818F3F19F060E00E94C30673
:101280008F850F2D10E084FF25C06E0187E0C80E0A
:10129000D11CE12CF12CB8010E2C02C0759567957C
:1012A0000A94E2F76170F60181916F010E94C30612
:1012B000FFEFEF1AFF0A88E0E816F10461F7CE01AC
:1012C000DF91CF911F910F91FF90EF90DF90CF9022
:1012D0000C94F306B80184E0759567958A95E1F75B
:1012E000CE010E94FF086F2DCE01DF91CF911F919B
:1012F0000F91FF90EF90DF90CF900C94FF0841E0AA
:101300000E942C0981E090E0089540E00C942C09A3
:1013100061E00E9485098BE39FE10197F1F7089551
:10132000AF92BF92CF92DF92EF92FF920F931F93F3
:10133000CF93DF9300D01F92CDB7DEB75C0182E57B
:101340008B83D5011F96ED91FC91509704811581F7
:101350002081318182E0C82ED12CFE0131967F019F
:1013600041E050E0BE016D5F7F4F1C968D919C91D6
:101370001D970E94AB118A81D5011E968C931E97F2
:101380001F960D911C9150970115110531F0C80160
:101390000E94B30DC8010E944226F501108A1786EB
:1013A0008981811102C081E0818B0F900F900F9095
:1013B000DF91CF911F910F91FF90EF90DF90CF9031
:1013C000BF90AF9008950F931F93CF93DF93EC01DD
:1013D0008B0160EB71E08F8598890E94A40DF80164
:1013E00044815581608171818F859889DF91CF918A
:1013F0001F910F910C94370DCF93DF93EC018D81EA
:101400009E81DC01ED91FC910084F185E02D099530
:101410001816190654F48D819E81DC01ED91FC9122
:101420000284F385E02D0995EACFDF91CF910895ED
:101430008F929F92AF92BF92CF92DF92EF92FF92E4
:10144000CF93DF93EC016B010E94A9084B015C0173
:10145000E12CF12C8D819E81DC01ED91FC910284C7
:10146000F385E02D099597FF0FC00E94A908DC01C4
:10147000CB0188199909AA09BB098C159D05AE05F0
:10148000BF0540F38FEF9FEFDF91CF91FF90EF907B
:10149000DF90CF90BF90AF909F908F900895FC0108
:1014A000238134812627022E2295207F2025032E9A
:1014B000322F22952F700226269532272327220FBE
:1014C000220F220F2025348323830895CF92DF92A9
:1014D000EF92FF920F931F936801790100E010E0F3
:1014E00020E030E00E94AB111F910F91FF90EF9030
:1014F000DF90CF9008950F931F93CF93DF9300D089
:101500001F92CDB7DEB729E42983FC0126852A8303
:101510006B8300E010E020E030E043E050E0BE01EB
:101520006F5F7F4F848595850E94660A81E090E019
:101530000F900F900F90DF91CF911F910F91089511
:10154000EF92FF920F931F93CF93DF9300D0CDB70D
:10155000DEB77C01FC018189882389F087E78983D4
:1015600086858A8300E010E020E030E042E050E031
:10157000BE016F5F7F4F848595850E94660AF701E3
:10158000118A0F900F90DF91CF911F910F91FF90D3
:10159000EF9008952DE131E0FC01318320830C941C
:1015A000A00A0F931F93CF93DF9300D000D0CDB745
:1015B000DEB727E52B83FC0126852C8302E010E0B3
:1015C0009E012F5F3F4F42E050E0BE016D5F7F4FB5
:1015D000848595850E94660A898190E0982F8827E6
:1015E0002A81820F911D0F900F900F900F90DF9125
:1015F000CF911F910F9108950F931F93CF93DF9376
:1016000000D01F92CDB7DEB722E72983FC012685E3
:101610002A8301E010E09E012D5F3F4F42E050E041
:10162000BE016F5F7F4F848595850E94660A81E0C9
:101630009B81913009F080E00F900F900F90DF9127
:10164000CF911F910F910895CF92DF92EF92FF9269
:101650000F931F93CF93DF9300D000D000D0CDB76E
:10166000DEB78C016B0162EB71E0CE0101960E9446
:10167000480EC8010E94A00A86E090E00E94AD25B5
:101680007C01BE016F5F7F4F0E942E0EF801F08A31
:10169000E786CE0101960E94B30D6BEB71E0CE019F
:1016A00001960E94480EBE016F5F7F4FC8010E94E5
:1016B000E309CE0101960E94B30DB601C8010E9454
:1016C000E309C8010E949009C8010E94FC0A88230E
:1016D00039F064E670E080E090E00E944507F4CFC6
:1016E000C8010E94D10A26960FB6F894DEBF0FBE3D
:1016F000CDBFDF91CF911F910F91FF90EF90DF90C1
:10170000CF900895EF92FF920F931F93CF93DF93A3
:1017100000D01F92CDB7DEB7FC012289211118C07D
:101720007C01138A8FE4898380E48B8386858A8396
:101730009F012C5E3F4F00E410E043E050E0BE010B
:101740006F5F7F4F848595850E94660AF701828BC3
:101750000F900F900F90DF91CF911F910F91FF90FD
:10176000EF900895CF93DF93EC010E94820B8A895A
:10177000882331F08B89C80FD11D8C8990E002C07D
:101780008FEF9FEFDF91CF910895CF93DF93EC011F
:101790000E94820B8A89882359F081508A8B8B8919
:1017A00091E0980F9B8BC80FD11D8C8990E002C0EF
:1017B0008FEF9FEFDF91CF910895CF93DF93EC01EF
:1017C0000E94820B8A8990E0DF91CF910895FC01FD
:1017D0001382128288EE93E0A0E0B0E084839583C8
:1017E000A683B7838DE191E09183808375876487B9
:1017F000118A128A138A0895CF92DF92EF92FF9294
:101800000F931F93CF93DF93CDB7DEB7C257D109A4
:101810000FB6F894DEBF0FBECDBF6B017C018A010D
:1018200068EB76E0CE0101960E94E70B6EEB71E06B
:10183000CE018F599F4F0E94480EB801CE018B5A9E
:101840009F4F0E942E0E69E174E0CE018B5A9F4F8C
:101850000E94650DBC01CE01855A9F4F0E942E0E3D
:10186000CE018B5A9F4F0E94B30D22E0B701A60113
:10187000CE0189599F4F0E94B80DBE0169597F4F13
:10188000CE0183599F4F0E942E0E69E174E0CE0174
:1018900083599F4F0E94650DBC01CE018B5A9F4F0B
:1018A0000E942E0ECE0183599F4F0E94B30DCE0190
:1018B00089599F4F0E94B30DBE016F597F4FCE01D2
:1018C00089599F4F0E942E0EBE01655A7F4FCE014F
:1018D00089599F4F0E947E0DBE016B5A7F4F0E9417
:1018E0007E0DBC01CE0101960E94240BCE018959C8
:1018F0009F4F0E94B30DCE018B5A9F4F0E94B30D94
:10190000CE01855A9F4F0E94B30DCE018F599F4F34
:101910000E94B30DCE0101960E94CA0ACE58DF4F35
:101920000FB6F894DEBF0FBECDBFDF91CF911F91F0
:101930000F91FF90EF90DF90CF9008950E94A42721
:101940000F931F93CF93DF93EC01888199810097C8
:1019500029F02A813B812617370788F48B016F5FB6
:101960007F4F0E94DA26009761F0998388831B835A
:101970000A832C813D81232B11F4FC01108281E02C
:1019800001C080E0DF91CF911F910F910895CF9317
:10199000DF93EC0188819981009711F00E94422623
:1019A000198218821D821C821B821A82DF91CF91BC
:1019B0000895EF92FF920F931F93CF93DF93EC0163
:1019C0007B018A01BA010E94A00C811104C0CE01E2
:1019D0000E94C70C07C01D830C83B70188819981C1
:1019E0000E94B227CE01DF91CF911F910F91FF90FE
:1019F000EF9008950F931F93CF93DF931F92CDB76E
:101A0000DEB782E0898342E450E06DE773E080E86E
:101A10000E94F5050E943814DC0112960D911C916C
:101A200013970115110569F0D801ED91FC91028021
:101A3000F381E02DBE016F5F7F4FC801099597FFCD
:101A400007C089810F90DF91CF911F910F91089569
:101A5000F80100851185E5CFFC0180819181009717
:101A600011F00C94101F60E070E0CB010895EF922C
:101A7000FF920F931F93CF93DF93FC012481358155
:101A80006115710511F480E019C041155105A9F0E7
:101A90007B01EC018A01020F131FB8010E94A00C08
:101AA000882389F3288139818C819D81B701820F38
:101AB000931F0E94B2271D830C8381E0DF91CF9199
:101AC0001F910F91FF90EF900895CF93DF93EC015A
:101AD0006115710561F0FB0101900020E9F7319774
:101AE000AF01461B570B0E94370D811103C0CE0179
:101AF0000E94C70CCE01DF91CF910895CF93DF9361
:101B0000EC01FB0144815581608171810E94370D98
:101B1000811103C0CE010E94C70CCE01DF91CF918D
:101B20000895CF93DF9300D0CDB7DEB769831A82D3
:101B300041E050E0BE016F5F7F4F0E94370D0F9074
:101B40000F90DF91CF9108956115710551F0FB0160
:101B500001900020E9F73197AF01461B570B0C9419
:101B6000370D80E00895FC01808191810C9442261C
:101B7000EF92FF920F931F93CF93DF93CDB7DEB712
:101B8000A1970FB6F894DEBF0FBECDBF7C01CB018D
:101B9000BA01F70111821082138212821582148217
:101BA00042E0420F8E010F5F1F4F0E94F01E009710
:101BB00069F0FC0101900020E9F73197AF01481B63
:101BC000590BBC01C7010E94D90C03C0C7010E9478
:101BD000C70CA1960FB6F894DEBF0FBECDBFDF9144
:101BE000CF911F910F91FF90EF900895EF92FF9288
:101BF0000F931F93CF93DF93CDB7DEB762970FB6E6
:101C0000F894DEBF0FBECDBF8C01CB01F80111826D
:101C10001082138212821582148250E09E012F5F7F
:101C20003F4F7901B9010E94141FF7010190002074
:101C3000E9F73197AF014E195F09B701C8010E945A
:101C4000D90C62960FB6F894DEBF0FBECDBFDF9100
:101C5000CF911F910F91FF90EF900895FB01DC0150
:101C600011961C921E9213961C921E921297159614
:101C70001C921E9214978617970749F06081718114
:101C80006115710521F0448155810C94D90C08959A
:101C9000FC01118210821382128215821482611556
:101CA000710551F0FB0101900020E9F73197AF0178
:101CB000461B570B0C94D90C08951F920F920FB628
:101CC0000F9211242F933F934F935F936F937F93C2
:101CD0008F939F93AF93BF93CF93EF93FF93C09155
:101CE000E1008091E100837F8093E100C3FF0FC09A
:101CF0001092E90081E08093EB001092EC0082E307
:101D00008093ED001092C80588E08093F000C2FF38
:101D100018C00E94F2138091C605882339F0809183
:101D2000C60581508093C605882389F18091C70537
:101D3000882339F08091C70581508093C705882397
:101D400041F1C4FF10C08091E2008E7E81608093DB
:101D5000E2008091E1008F7E8093E1008091A605F2
:101D60008E7E806111C0C0FF16C08091E2008E7E21
:101D700080618093E2008091E1008E7E8093E1009B
:101D80008091A6058E7E81608093A60504C05D9A31
:101D9000CDCF289AD6CFFF91EF91CF91BF91AF9140
:101DA0009F918F917F916F915F914F913F912F9173
:101DB0000F900FBE0F901F9018951F920F920FB6A5
:101DC0000F921124CF92DF92EF92FF920F931F9305
:101DD0002F933F934F935F936F937F938F939F9333
:101DE000AF93BF93EF93FF93CF93DF93CDB7DEB75E
:101DF0006C97DEBFCDBF1092E9008091E80083FFB1
:101E0000EDC168E0CE0145960E941C0682EF8093EA
:101E1000E8008D8987FF05C09091E80090FFFCCF16
:101E200003C09EEF9093E800982F907609F0C6C00B
:101E30009E892F89188D91110CC0803829F48091CA
:101E4000A7058093F10002C01092F1001092F100FA
:101E500048C1422F50E0512B913051F4811141C1C2
:101E60004130510509F03DC18091A7058D7F0BC020
:101E7000933061F4811135C14130510509F031C110
:101E80008091A70582608093A7052BC1953041F40E
:101E90008091E80080FFFCCF20682093E30021C1FF
:101EA000963009F05FC0EB8CFC8C1092E900109228
:101EB000C5051092C405123091F51092C305109219
:101EC000C2050E94FA0C99E0BE016F5F7F4FDB01F3
:101ED000E92F1D92EA95E9F799831A8391E09E8391
:101EE00090EA98879AEF99872091C4053091C505AB
:101EF000275F3F4F3C832B838D831092E900109224
:101F0000C5051092C405F092C305E092C20549E0F0
:101F100050E080E00E94F5050E94FA0CE2C0F092C9
:101F2000C305E092C2050E943814DC011296ED90C0
:101F3000FC901397E114F10409F4C0C0D701ED91AE
:101F4000FC910480F581E02DBE016B5E7F4FC701DF
:101F50000995009719F00CF0C4C0C7C0F701E084E0
:101F6000F184E8CF973009F4C0C0983021F481E0C3
:101F70008093F100B6C0993009F0B3C0837009F0C6
:101F8000B4C0ECE5F1E081E021E036E390819923F3
:101F900061F08093E9002093EB0091919093EC0025
:101FA0003093ED008F5F873089F78EE78093EA00EA
:101FB0001092EA008F898093C80593C08B8D9C8D09
:101FC0001092E9001092C5051092C4059093C305C4
:101FD0008093C205898D811156C08E899D89913A61
:101FE00059F4813209F081C047E050E06BE071E0C4
:101FF00080E00E94F50575C0913209F076C0833209
:1020000089F4888D90E0982F88272F89822BA0E073
:10201000B0E08093070190930801A0930901B09369
:102020000A015FC0803269F48091E80082FFFCCF32
:1020300067E08BE091E00E941C068BEF8093E80044
:1020400006C0823209F04DC08F89809312018091C1
:10205000A505882319F0EEEFFAE002C0E0E0F8E011
:1020600080910B0190910C01A0910D01B0910E0196
:10207000803B9440A105B10509F07BC0809112011D
:1020800080FF93C076C00E943814DC0112960D9137
:102090001C9113970115110541F1D801ED91FC91A7
:1020A0000190F081E02DBE016B5E7F4FC801099564
:1020B000811117C0F80100851185ECCF113009F4AA
:1020C0004EC0133091F48F89882309F445C08230C3
:1020D00081F440E86BE081EE93E00E944C14882389
:1020E00021F08EEF8093E80079C081E28093EB00CD
:1020F00075C0813029F440E86BE085ED93E0EDCFC9
:10210000833099F70E943814DC011296ED90FC9010
:1021100013978E010F5F1F4F6801E114F10479F0EE
:10212000D701ED91FC910680F781E02DB801C70140
:102130000995080F111DF701E084F184EECFD80155
:102140001C92F60101900020E9F73197BF016C194C
:102150007D0940E0C601C1CF6FEB73E002C063ECC4
:1021600073E06115710509F2FB01449150E080E8CC
:1021700040CF0FB6F894A895809160008861809355
:102180006000109260000FBEA895EE3F2AE0F207B3
:1021900039F08091FE0A9091FF0A91838083A1CF4C
:1021A0001092FF0A1092FE0A9CCFEE3F8AE0F807D9
:1021B00031F0808191819093FF0A8093FE0A87E736
:1021C00097E7918380839BE088E10FB6F894A89508
:1021D000809360000FBE9093600083CF6C960FB623
:1021E000F894DEBF0FBECDBFDF91CF91FF91EF918D
:1021F000BF91AF919F918F917F916F915F914F911F
:102200003F912F911F910F91FF90EF90DF90CF9012
:102210000F900FBE0F901F901895EF92FF920F93A3
:102220001F93CF93DF93EC01623018F08F858860A5
:102230008F876B8B1C8A80E48D8B80E18E8B80E591
:102240008F8B61E08C810E9409078D818F3F19F08F
:1022500061E00E94090761E08E810E9409077E010A
:1022600087E0E80EF11C00E010E08F8584FD03C0DC
:1022700084E090E002C088E090E0081719074CF471
:1022800061E0F70181917F010E9409070F5F1F4FF5
:10229000ECCF8BE39DE00197F1F760E08C810E9429
:1022A000C30660E08E810E94C3068D818F3F19F0C6
:1022B00060E00E94C3066F8564FD1DC063E0CE012F
:1022C0000E94FF080BE416E4C8010197F1F763E0F0
:1022D000CE010E94FF08C8010197F1F763E0CE012B
:1022E0000E94FF0883E592E00197F1F762E0CE01DA
:1022F0000E94FF0816C06062CE010E9485098BE42F
:1023000096E40197F1F76F856062CE010E9485091E
:1023100083E592E00197F1F76F856062CE010E943C
:1023200085096F856062CE010E94850984E0888BF3
:102330006CE0CE010E948509CE010E94880982E0EE
:10234000898B66E0CE01DF91CF911F910F91FF90B5
:10235000EF900C9485092F923F924F925F926F926B
:102360007F928F929F92AF92BF92CF92DF92EF9225
:10237000FF920F931F93CF93DF93CDB7DEB72B97C9
:102380000FB6F894DEBF0FBECDBF9B878A875B0177
:102390001901FD82EC823A01600E711E872C7B824E
:1023A000912C44244A94542C9B01240F351F3F83C5
:1023B0002E839101200F311F39872887EA85FB85FD
:1023C0008085981608F036C1AA85BB8514965C9264
:1023D0004E92139715968D919C911697DC01ED9175
:1023E000FC910190F081E02D6FEF09956FEF8A85E8
:1023F0009B850E944F0AEA85FB8585819681DC01D9
:10240000ED91FC910190F081E02DAA85BB856C9146
:102410000995EA85FB856081CF010E944F0AAA8554
:10242000BB8515968D919C911697DC01ED91FC91E1
:102430000190F081E02D682D09956B818A859B853F
:102440000E944F0AEA85FB8585819681DC01ED912A
:10245000FC910190F081E02D662D0995662D8A850D
:102460009B850E944F0A75012E813F81E216F3067B
:10247000B1F0EA85FB85858196818701DC01ED91CC
:10248000FC910190F081E02DD7016D917D010995BE
:10249000F80160818A859B850E944F0AE5CF710112
:1024A000AA85BB8515968D919C91169728853985AF
:1024B000E216F30691F08701DC01ED91FC910190A9
:1024C000F081E02DD7016D917D010995F8016081C2
:1024D0008A859B850E944F0AE3CFDC01ED91FC9138
:1024E000AA85BB8514966C910190F081E02D099529
:1024F000EA85FB8585819681DC01ED91FC91019057
:10250000F081E02DAA85BB8513966C91099564E650
:1025100070E08A859B850E94180A8F3F910509F01B
:102520007DC0EA85FB85548243826FEFCF010E9414
:102530004F0A65E070E08A859B850E94180AAA858B
:10254000BB856C91262F30E08217930709F066C097
:10255000CD010E944F0A6AE070E08A859B850E9447
:10256000180A7C0197FD5AC0682F8A859B850E94B6
:102570004F0A6AE070E08A859B850E94180A8C01E8
:1025800097FD4CC0682F8A859B850E944F0AEA827E
:102590001982E981FA810E0F1F1FE12CF12C65E0F1
:1025A00070E08A859B85E016F106A9F0EC14FD0425
:1025B00091F00E94180A97FD0AC0EC81FD81EE0D92
:1025C000FF1D8083682F8A859B850E944F0AFFEF3D
:1025D000EF1AFF0AE4CF0E94180A7C0197FD1EC083
:1025E00065E070E08A859B850E94180A97FD16C0F9
:1025F000FE2CEE248E0D9F1DAA85BB8513962D9172
:102600003C9114972817390749F48C918F5F8C936C
:10261000C801C016D10680F4C6010EC0939464E6CA
:1026200070E080E090E00E9445078A859B850E94CB
:10263000FC09C4CE8FEF9FEF2B960FB6F894DEBF48
:102640000FBECDBFDF91CF911F910F91FF90EF9003
:10265000DF90CF90BF90AF909F908F907F906F90C2
:102660005F904F903F902F900895643008F063E0A2
:102670009091D606691710F06FEF690FE62FF0E022
:10268000ED53F94F9489682F690F606883EC96E0E9
:102690000C948509CF93DF93BC0189EC95E00E94EF
:1026A0005406EC0169E975E089EC95E00E94540656
:1026B0008C0F9D1FDF91CF910895CF93DF93BC01C5
:1026C00089EC95E00E943006EC0169E975E089EC3F
:1026D00095E00E9454068C0F9D1FDF91CF910895C5
:1026E000FC01448155816081718183EC96E00C94FA
:1026F00050028F929F92AF92BF92CF92DF92EF9251
:10270000FF920F931F93CF93DF93CDB7DEB7A197BF
:102710000FB6F894DEBF0FBECDBF6C01990FEE0867
:10272000FF08F7FE2DC06DE283EC96E00E942906BB
:102730008C0122273327A9012C193D094E095F0975
:1027400019A2CE0181967C019AE0892E912CA12CB0
:10275000B12CCA01B901A50194010E947125605DE7
:10276000F70162937F01211531054105510589F774
:10277000BF0183EC96E00E945406800F911F1FC09A
:10278000A701960119A28E010F5D1F4F8AE0C82E86
:10279000D12CE12CF12CCA01B901A70196010E94AC
:1027A0007125605DF80162938F01211531054105A6
:1027B000510589F7BF0183EC96E00E945406A1966B
:1027C0000FB6F894DEBF0FBECDBFDF91CF911F9142
:1027D0000F91FF90EF90DF90CF90BF90AF909F90C0
:1027E0008F90089583E08093E9008091F200882320
:1027F00019F08AE38093E8000895FC018091C805F0
:10280000811103C08FEF9FEF08959FB7F89482E086
:102810008093E9002091F20030E01216130614F4C0
:1028200021E030E02115310559F0289884E68093A5
:10283000C7058091F10080838091F200882319F010
:102840009FBFC90108958BE68093E800F9CF2FB7A9
:10285000F89483E08093E9009091E800892F8072DA
:1028600095FF04C09091F20080E4891B2FBF08956A
:102870008091DF0681110DC082E08093DB0684E049
:102880008093DC061092DE061092DD0681E08093D4
:10289000DF068BED96E00895CF92DF92EF92FF92E4
:1028A0000F931F93CF93DF931F92CDB7DEB7182FEF
:1028B000062FE42E862F880F8E5F99830E942202B6
:1028C00083E00E942202F12EC12E9981D92E8C2DF7
:1028D0008F19801798F4F601E7FE02C0849101C0B9
:1028E00080810E942202182F80E00E942202812310
:1028F000FFEFCF1ADF0A8111EACF01C081E00F900C
:10290000DF91CF911F910F91FF90EF90DF90CF90CB
:102910000895CF93DF93CDB7DEB7C654D1400FB63D
:10292000F894DEBF0FBECDBF789484B5826084BDBD
:1029300084B5816084BD85B5826085BD85B58160C3
:1029400085BD80916E00816080936E001092810041
:1029500080918100826080938100809181008160FC
:1029600080938100809180008160809380008091BD
:1029700091008260809391008091910081608093AA
:102980009100809190008160809390008091C100BF
:1029900084608093C1008091C10082608093C100F7
:1029A0008091C10081608093C1008091C3008160EB
:1029B0008093C3008091C00082608093C0008091AA
:1029C000C20081608093C20080917A00846080930D
:1029D0007A0080917A00826080937A0080917A00F8
:1029E000816080937A0080917A00806880937A0079
:1029F0001092C8051092A7051092A6058091D700E5
:102A000081608093D70080EA8093D80089B5806187
:102A100089BD89B5826089BD09B400FEFDCF61E042
:102A200070E080E090E00E9445078091D8008F7CA4
:102A300080618093D8008091E000807F8093E000E7
:102A40008091E1008E7E8093E1008DE08093E20032
:102A5000559A209AEEEFFFE7859194918B3F9C4D1C
:102A600019F481E08093A50562E083EC96E00E9472
:102A70000D1160E080E00E943513E091C106F091F5
:102A8000C206A089B18982E08C93A485B5851C9289
:102A9000A685B78587E08C93108EA489B58986E0DA
:102AA0008C93A289B3898C9180618C93A289B3891C
:102AB0008C9188608C93A289B3898C9180688C9367
:102AC0000288F389E02D80818F7D80838091BF060D
:102AD0008111D4C081E08093BF0688EB96E00E940C
:102AE000FC0968EE73E080E090E00E944507809169
:102AF000BD069091BE06DC01ED91FC910084F1854C
:102B0000E02D09951816190644F345E0B42EAA24C1
:102B1000A39452E3952EEBE2F1E0DE01AB5ABF4FF6
:102B20008B2D01900D928A95E1F7A092C00600E0EE
:102B300010E020E030E045E050E0BE016B5A7F4FEE
:102B400088EB96E00E94660A63E08091BD06909152
:102B5000BE060E9429066AEF70E080E090E00E94C5
:102B6000450764E972E08091BD069091BE060E941F
:102B700030066AEF70E080E090E00E94450762E96D
:102B800072E08091BD069091BE060E94300664EF0F
:102B900071E080E090E00E94450766E872E0809175
:102BA000BD069091BE060E94300664EF71E080E0A1
:102BB00090E00E94450788EB96E00E94FC09E0E364
:102BC000F1E0DE0111968B2D01900D928A95E1F7CF
:102BD0009092C00604E010E09E0127553F4F45E06B
:102BE00050E0BE016F5F7F4F88EB96E00E94660A5F
:102BF0008F3FBFEF9B0739F468EE73E080E090E011
:102C00000E94450788CFC755DF4F2881C95AD04059
:102C10002111FFCF049749F5C655DF4F2881CA5AC5
:102C2000D04030E02053310984E6829FA001839F89
:102C3000500D1124C555DF4F2881CB5AD04030E0CC
:102C4000205331096AE0629FC001639F900D1124F7
:102C5000840F951FC455DF4F2881CC5AD04030E0F7
:102C600020533109820F931F02C084E690E09093B5
:102C7000BA068093B90682E38093C0068FEF9FEF78
:102C80009093D6058093D50586E992E00E945D1366
:102C900068EB76E0CE0101960E94E70B67ED71E0EC
:102CA000CE018B5A9F4F0E94480ECE0101960E9482
:102CB000A00A86E090E00E94AD255C01BE016B5A3F
:102CC0007F4F0E942E0EB98AA88ACE018B5A9F4F41
:102CD0000E94B30D6DED71E0CE018B5A9F4F0E94A3
:102CE000480EBE016B5A7F4FCE0101960E94E30948
:102CF000CE018B5A9F4F0E94B30DCE0101960E94C8
:102D00009009CE0101960E94FC0A882339F064E6FE
:102D100070E080E090E00E944507F3CFCE0101967D
:102D20000E94D10ACE0101960E94CA0A8AEF92E05F
:102D30000E945D1368EB76E0CE018B5A9F4F0E9494
:102D4000E70B68EB76E0CE0101960E94E70B68EE98
:102D500071E0CE01855E9E4F0E94480E61EF71E0EA
:102D6000CE018B5E9E4F0E94480E67E072E0CE015E
:102D7000815F9E4F0E94480E6CE872E0CE01875F33
:102D80009E4F0E94480EBE01655E7E4FCE01875564
:102D90009F4F0E942E0EBE016B5E7E4FCE01875567
:102DA0009F4F0E947E0DBE01675F7E4F0E947E0D89
:102DB000BC01CE018B5A9F4F0E94240BCE01875538
:102DC0009F4F0E94B30DCE018B5A9F4F0E94820BE2
:102DD000A8968FADA897882381F1CE018B5A9F4F7B
:102DE0000E94C50B813379F78FEE92E00E945D134C
:102DF0004AE060E171E0CE0187559F4F0E94F60DD9
:102E000065E471E0CE0183509F4F0E94480E61EA55
:102E100072E0CE018D5F9E4F0E94480ECE018D5F05
:102E20009E4F0E94B30DCE0183509F4F0E94B30D61
:102E3000CE0187559F4F0E94B30D60ED77E080E093
:102E400090E00E944507BE01655E7E4FCE0187552A
:102E50009F4F0E942E0EBE016B5E7E4FCE018755A6
:102E60009F4F0E947E0DBE01615F7E4F0E947E0DCE
:102E7000BC01CE0101960E94240BCE0187559F4FC5
:102E80000E94B30DCE0101960E94820B8B8988238C
:102E9000C1F189EE92E00E945D13CE0101960E947D
:102EA000C50B813351F58CED92E00E945D134AE031
:102EB00060E271E0CE0187559F4F0E94F60D65E4F8
:102EC00071E0CE0183509F4F0E94480E6DEA72E080
:102ED000CE018D5F9E4F0E94480ECE018D5F9E4FAA
:102EE0000E94B30DCE0183509F4F0E94B30DCE01BF
:102EF00087559F4F0E94B30D04C080EC92E00E9462
:102F00005D130E94F213CE01875F9E4F0E94B30DA6
:102F1000CE01815F9E4F0E94B30DCE018B5E9E4F0E
:102F20000E94B30DCE01855E9E4F0E94B30DCE016F
:102F300001960E94CA0ACE018B5A9F4F0E94CA0A6C
:102F40000E94A9087093A9056093A8050E94A9088A
:102F50008090030190900401A0900501B0900601BB
:102F60009B01AC01281939094A095B0949015A0139
:102F700030ED831637E09306A104B10408F4B3C51D
:102F800060930301709304018093050190930601FF
:102F9000CA5BDE4F1882C654D140CB5BDE4F18822D
:102FA000C554D14000E010E09E012B5B3E4FAE01C6
:102FB0004A5B5E4F67E070E081E091E00E94590556
:102FC0005C01892B09F467C060E080E00E94351342
:102FD0006BEB72E083EC96E00E94690661E081E0B1
:102FE0000E9435136AEC72E083EC96E00E94690659
:102FF00068EE73E080E090E00E94450783EC96E085
:103000000E94880968EE73E080E090E00E94450726
:103010004AE063ED70E0CE0101960E94F60D6EE489
:1030200071E0CE018B5A9F4F0E94480E4AE0B501D5
:10303000CE0183509F4F0E94F60D68ED72E0CE01E5
:103040008D5F9E4F0E94480EBE0163507F4FCE01A0
:103050008D5F9E4F0E947E0DBC01CE0187559F4F14
:103060000E942E0ECE0187559F4F0E94B30DCE01B8
:103070008D5F9E4F0E94B30DCE0183509F4F0E94E3
:10308000B30DCE018B5A9F4F0E94B30DCE01019616
:103090000E94B30D28C5CA5BDE4F1881C654D140CB
:1030A000143608F0E5C4CB5BDE4F6881C554D140CF
:1030B000643608F0DDC470E080E090E00E943D23BB
:1030C0004B015C01612F70E080E090E00E943D23A5
:1030D0002B013C0180910001882331F088E293E0CC
:1030E0000E945D131092000168EB76E0CE018755D7
:1030F0009F4F0E94E70B68EE71E0CE01815C9E4F0E
:103100000E94480E61EF71E0CE01815C9E4F0E94EB
:10311000A40D22E0B501A401CE0101960E94B80DD4
:1031200022E0B301A201CE018B5A9F4F0E94B80D3D
:103130006FEF72E0CE0183509F4F0E94480EBE0198
:103140006B5A7F4FCE0183509F4F0E947E0D62E4E9
:1031500073E00E94650DBE016F5F7F4F0E947E0D80
:1031600068E872E00E94650DDC0114964D915C9157
:1031700015976D917C91CE01815C9E4F0E94370D19
:10318000CE0183509F4F0E94B30DCE018B5A9F4FAB
:103190000E94B30DCE0101960E94B30D65E473E069
:1031A000CE01815C9E4F0E94A40DBE01615C7E4FEA
:1031B000CE0187559F4F0E94240B6FE473E0CE0130
:1031C00001960E94480EAE014F5F5F4FC301B201EE
:1031D0000E94FC0BCE0101960E94B30D6BE573E0DB
:1031E000CE0101960E94480EAE014F5F5F4FC501B0
:1031F000B4010E94FC0BCE0101960E94B30DCE01DA
:1032000087559F4F0E94820BC554DF4F8881CB5B4F
:10321000D040882309F41FC4CE0187559F4F0E94D8
:10322000C50B68EB76E0CE018B5A9F4F0E94E70BEF
:1032300068EB76E0CE0101960E94E70B68EE71E044
:10324000CE01875C9E4F0E94480E63E673E0CE017C
:103250008D5C9E4F0E94480E61EF71E0CE01835D50
:103260009E4F0E94480E6AE673E0CE01895D9E4F34
:103270000E94480E6FE973E0CE018F5D9E4F0E9461
:10328000480EBE01675C7E4FCE0183509F4F0E9467
:103290002E0EBE016D5C7E4FCE0183509F4F0E946B
:1032A0007E0DBE01635D7E4F0E947E0DBE01695D95
:1032B0007E4F0E947E0DBC01CE018B5A9F4F0E9413
:1032C000240BCE0183509F4F0E94B30D6BE975E034
:1032D000CE01855E9E4F0E94480E6BE975E0CE01DF
:1032E0008B5E9E4F0E94480ECE018B5A9F4F0E94CC
:1032F000820BA8968FADA897882321F1CE018B5A17
:103300009F4F0E94C50B182FCE018B5A9F4F0E94D2
:10331000820BA8968FADA897882331F0612FCE013C
:10332000855E9E4F0E94910D812F012E000C990BFE
:10333000C0970A97C8F6612FCE018B5E9E4F0E9400
:10334000910DD2CFBE01675C7E4FCE0183509F4F5F
:103350000E942E0EBE016D5C7E4FCE0183509F4FAA
:103360000E947E0DBE01635D7E4F0E947E0DBE01F8
:103370006F5D7E4F0E947E0DBC01CE0101960E94C2
:10338000240BCE0183509F4F0E94B30D6BE975E073
:10339000CE01815F9E4F0E94480E6BE975E0CE0121
:1033A000875F9E4F0E94480ECE0101960E94820BBD
:1033B0008B89882301F1CE0101960E94C50B182F3D
:1033C000CE0101960E94820B8B89882331F0612FF8
:1033D000CE01815F9E4F0E94910D812F012E000C26
:1033E000990BC0970A9700F7612FCE01875F9E4F18
:1033F0000E94910DD9CFBE01615F7E4FCE018350F7
:103400009F4F0E942E0ECE01875F9E4F0E942C0D73
:1034100020E030E040E251E40E94B0244B015C0126
:10342000BE01655E7E4FCE018D5F9E4F0E942E0EC7
:10343000CE018B5E9E4F0E942C0D20E030E040E2DA
:1034400051E40E94B0242B013C0120E030E048EA26
:1034500051E40E94582587FD4BC08091BD05811124
:1034600047C08091B0059091B10501969093B10548
:103470008093B00583ED93E00E944A138091B005DC
:103480009091B1050A97C1F51092B1051092B0055F
:1034900083EC96E00E94880960E080E00E9435138A
:1034A0006EEE73E083EC96E00E94690661E082E0D4
:1034B0000E943513CE018D5F9E4F0E9470136FEDF9
:1034C00083EC96E00E9429066CEF73E083EC96E0B3
:1034D0000E94690668EB7BE080E090E00E9445076F
:1034E00083EC96E00E94880981E08093BD0504C0CA
:1034F0001092B1051092B00520E030E040E251E4B6
:10350000C301B2010E94382318160CF44BC08091FD
:10351000BA05811147C08091AE059091AF05019623
:103520009093AF058093AE058EEF93E00E944A130F
:103530008091AE059091AF050A97C1F51092AF0545
:103540001092AE0583EC96E00E94880960E080E06E
:103550000E9435136BE174E083EC96E00E946906EB
:1035600061E082E00E943513CE018D5F9E4F0E9484
:1035700070136FED83EC96E00E9429066CEF73E008
:1035800083EC96E00E94690668EB7BE080E090E0C7
:103590000E94450783EC96E00E94880981E08093B1
:1035A000BA0504C01092AF051092AE0520E030E0DD
:1035B00040EA51E4C501B4010E94582587FD46C088
:1035C0008091B705811142C08091AC059091AD0505
:1035D00001969093AD058093AC0589E294E00E943A
:1035E0004A138091AC059091AD050A9799F5109218
:1035F000AD051092AC0583EC96E00E94880960E06E
:1036000080E00E94351360E474E083EC96E00E9451
:10361000690661E082E00E943513CE0183509F4F1E
:103620000E9470136DE474E083EC96E00E946906DA
:1036300068EB7BE080E090E00E94450783EC96E039
:103640000E94880981E08093B70504C01092AD05FF
:103650001092AC0520E030E040E251E4C501B40135
:103660000E94382318160CF442C08091B4058111D1
:103670003EC08FE494E00E944A138091AA05909185
:10368000AB0501969093AB058093AA050A9799F52F
:103690001092AB051092AA0583EC96E00E9488096F
:1036A00060E080E00E94351366E674E083EC96E00B
:1036B0000E94690661E082E00E943513CE018350CA
:1036C0009F4F0E9470136DE474E083EC96E00E94BB
:1036D000690668EB7BE080E090E00E94450783ECA0
:1036E00096E00E94880981E08093B40504C010929E
:1036F000AB051092AA05CE018D5F9E4F0E94B30DBF
:10370000CE0183509F4F0E94B30DBE01615F7E4F7B
:10371000CE0183509F4F0E942E0ECE01875F9E4F99
:103720000E942C0D20E030E040E251E40E94B024E1
:103730004B015C01BE01655E7E4FCE018D5F9E4FE9
:103740000E942E0ECE018B5E9E4F0E942C0D20E01B
:1037500030E040E251E40E94B0242B013C0120E023
:1037600030E048EA51E40E94382387FF42C080914C
:10377000BD058823F1F18091BB059091BC050196B0
:103780009093BC058093BB050A97B9F51092BC05D0
:103790001092BB0583E794E00E944A1360E080E04A
:1037A0000E94351366E974E083EC96E00E94690696
:1037B00061E082E00E943513CE018D5F9E4F0E9432
:1037C00070136FED83EC96E00E9429066CEF73E0B6
:1037D00083EC96E00E94690668EB7BE080E090E075
:1037E0000E94450783EC96E00E9488091092BD056F
:1037F00004C01092BC051092BB0520E030E040E20E
:1038000051E4C301B2010E94582518160CF042C0C1
:103810008091BA058823F1F18091B8059091B9059E
:1038200001969093B9058093B8050A97B9F510925F
:10383000B9051092B80587EA94E00E944A1360E047
:1038400080E00E9435136AEC74E083EC96E00E94FD
:10385000690661E082E00E943513CE018D5F9E4FC4
:103860000E9470136FED83EC96E00E9429066CEFC6
:1038700073E083EC96E00E94690668EB7BE080E0F1
:1038800090E00E94450783EC96E00E948809109220
:10389000BA0504C01092B9051092B80520E030E0D6
:1038A00040EA51E4C501B4010E94382387FF3DC0BE
:1038B0008091B7058823C9F18091B5059091B6052F
:1038C00001969093B6058093B5050A9791F51092ED
:1038D000B6051092B5058AED94E00E944A1360E0A7
:1038E00080E00E94351369EF74E083EC96E00E945B
:1038F000690661E082E00E943513CE0183509F4F3C
:103900000E9470136DE474E083EC96E00E946906F7
:1039100068EB7BE080E090E00E94450783EC96E056
:103920000E9488091092B70504C01092B605109243
:10393000B50520E030E040E251E4C501B4010E9449
:1039400058251816ECF58091B4058823C9F18091AB
:10395000B2059091B30501969093B3058093B2059B
:103960000A9791F51092B3051092B2058AED94E092
:103970000E944A1360E080E00E94351369EF74E012
:1039800083EC96E00E94690661E082E00E943513B4
:10399000CE0183509F4F0E9470136DE474E083EC5E
:1039A00096E00E94690668EB7BE080E090E00E9470
:1039B000450783EC96E00E9488091092B40504C084
:1039C0001092B3051092B205CE018D5F9E4F0E94FA
:1039D000B30DCE0183509F4F0E94B30D8BE995E04C
:1039E0000E944A130E94F213CE01875F9E4F0E94ED
:1039F000B30DCE01815F9E4F0E94B30DCE018B5E51
:103A00009E4F0E94B30DCE01855E9E4F0E94B30D66
:103A1000CE018F5D9E4F0E94B30DCE01895D9E4FFA
:103A20000E94B30DCE01835D9E4F0E94B30DCE0167
:103A30008D5C9E4F0E94B30DCE01875C9E4F0E940D
:103A4000B30DCE0101960E94CA0ACE018B5A9F4F38
:103A50000E94CA0AD4CB0E94F213CE01815C9E4F11
:103A60000E94B30DCE0187559F4F0E94CA0A3BC0EA
:103A70004AE06CED70E0CE0101960E94F60D6EE416
:103A800071E0CE018B5A9F4F0E94480E69E075E0AD
:103A9000CE0187559F4F0E94480ECE0187559F4FFC
:103AA0000E94B30DCE018B5A9F4F0E94B30DCE01E1
:103AB00001960E94B30D83EC96E00E94880960E0B5
:103AC00080E00E94351366E275E083EC96E00E9488
:103AD000690661E084E00E94351366E375E083ECDB
:103AE00096E00E946906E1E7F3E0E49120917B0013
:103AF000E3FBEE24E0F8F12CC70135E0880F991FB5
:103B00003A95E1F7922F9F7D892B80937B00E77098
:103B1000E064E0937C0080917A00806480937A0076
:103B200080917A0086FDFCCF809178002091790009
:103B300090E0922B9093BF058093BE05893EB3E041
:103B40009B078CF4823391058CF0833C91058CF0BB
:103B50008C37E1E09E0784F08B32F2E09F077CF027
:103B6000863193407CF085E090E00EC080E090E0EC
:103B70000BC081E090E008C082E090E005C083E0E7
:103B800090E002C084E090E09093C1058093C0056E
:103B90008130910509F44DC044F5892B09F0A6C088
:103BA00083EC96E00E94880960E080E00E94351373
:103BB00061E575E083EC96E00E94690684E690E09A
:103BC0000E94791361E080E00E9435136DE575E095
:103BD00083EC96E00E94690680E090E00E947913F1
:103BE0006CEA7DE080E090E07BC08230910509F4D2
:103BF00046C0039709F07AC083EC96E00E948809DA
:103C000060E085E00E9435136FE375E083EC96E099
:103C10000E94690661E082E00E94351365E475E068
:103C200083EC96E00E94690668EB7BE080E090E020
:103C300057C060E080E00E94351369E675E083ECD0
:103C400096E00E94690685E190E00E9479136FED8D
:103C500083EC96E00E9429066CEF73E083EC96E01B
:103C60000E94690661E080E00E94351365E775E017
:103C700083EC96E00E94690684E190E025C060E054
:103C800080E00E94351361E875E083EC96E00E94C5
:103C900069068AE090E00E9479136FED83EC96E06C
:103CA0000E9429066CEF73E083EC96E00E9469069F
:103CB00061E080E00E9435136DE875E083EC96E0EA
:103CC0000E9469068AE090E00E9479136DE474E036
:103CD00083EC96E00E94690668E873E180E090E07A
:103CE0000E94450783EC96E00E9488090E944C03DD
:103CF0002DC9EBE1F6E01382128248EE53E060E05A
:103D000070E0448355836683778386E691E09183F0
:103D100080838DEC90E0958784878CEC90E097878A
:103D2000868788EC90E0918B808B89EC90E0938B78
:103D3000828B8AEC90E0958B848B8EEC90E0978B55
:103D4000868B118E128E138E148EA9ECB5E013960D
:103D50001C921E92129714964D935D936D937C93D3
:103D6000179788E791E011969C938E938FEF9FEFC2
:103D70001D969C938E931C97A8EBB6E0B0931A0601
:103D8000A09319061C921696FC93EE93159717961E
:103D90001C92179718961C9218971A96FC93EE93FC
:103DA0001997E3ECF6E0138212828CE991E091839B
:103DB00080838CE084838FEF85838BE0868385E02E
:103DC000878384E0808783E0818782E0828713860F
:103DD000148615861686178661E0CF010C940D11A6
:103DE000EF920F931F93CF93DF93E80147FD02C03B
:103DF00034E001C034E1E42F440FFF0BF7FF03C0B0
:103E0000F195E195F109E32E022F2E2FAE010E94CC
:103E1000441FCE01DF91CF911F910F91EF90089534
:103E2000662777270C94D2204532510520F4423082
:103E300010F00C941F1FFB011082CB010895BB27CB
:103E40004A3031F4992322F4BDE2909581959F4F39
:103E50000C942B1FBB27FB015527AA27880F991FFE
:103E6000AA1FA41710F0A41B83955051B9F7A05DA9
:103E7000AA3308F0A95DA193009779F7B111B19326
:103E80001192CB010C9428234F925F926F927F92F4
:103E90009F92AF92BF92CF92DF92EF92FF920F93D9
:103EA0001F93CF93DF93CDB7DEB729970FB6F89462
:103EB000DEBF0FBECDBF6A01122FB02E2BE320173D
:103EC00020F0FF24F394F00E02C0BCE3FB2E0F2D74
:103ED00027E0AE014F5F5F4F0E942F22AC01898126
:103EE000982F9970913031F0E1FC06C0E0FE06C0D9
:103EF00090E205C09DE203C09BE201C090E0EE2D80
:103F0000E07183FF3CC0911102C083E001C084E0F6
:103F1000811718F4212F281B01C020E0E1110BC0EC
:103F2000F601822F30E2882319F031938150FBCFC4
:103F3000C20ED11C20E0992329F0D6019C93F601F2
:103F400031966F01C6010396E2FE0AC03EE4D60137
:103F50003C9341E411964C93119712963C9306C002
:103F60003EE6F601308341E641833283FC01322F85
:103F700040E2332309F442C041933150FACF82FF2B
:103F800044C0911102C083E001C084E0811718F49D
:103F9000212F281B01C020E0E1110BC0F601822F68
:103FA00030E2882319F031938150FBCFC20ED11C2F
:103FB00020E0992329F0D6019C93F60131966F01F8
:103FC000C6010396E2FE0BC039E4D6013C933EE401
:103FD00011963C93119736E412963C9307C039E64C
:103FE000F60130833EE6318336E63283FC01322F20
:103FF00040E2332319F041933150FBCFFC01E20F33
:10400000F11D10828EEF9FEFB7C0F1E0911101C05A
:10401000F0E06F2F70E01416150624F49A012F5F5C
:104020003F4F02C021E030E0260F371FBB2029F0B0
:104030006B2D70E06F5F7F4F02C060E070E0260F75
:10404000371F612F70E0261737071CF4121B212F32
:1040500001C020E03E2D387159F4D601322F60E2C4
:10406000332319F06D933150FBCFC20ED11C20E0E9
:10407000FF2331F0D6019C93B6016F5F7F4F6B0138
:10408000E1110BC0F601922F30E3992319F031931F
:104090009150FBCFC20ED11C20E09F2D940F3A818E
:1040A000782F7071A72E84FF03C0313309F491502B
:1040B000191624F4993018F098E001C091E0E42F2B
:1040C000852F57FF02C0E0E080E06E2F782FE0E000
:1040D000F0E0AEE29A2E3A01691A71082A01461AF6
:1040E000570A0B2D10E01195019511096F3F8FEFC5
:1040F000780729F4D6019C92C60101966C014617F7
:10410000570784F0661677066CF47F01E40CF51C03
:10411000A1E0B0E0AC0FBD1FEA0EFB1ED701119667
:10412000BC9002C090E3B92E615071093196C6016E
:1041300001967C016017710724F0D601BC926C01D6
:10414000D5CF6417750741F4363320F4353321F4A5
:10415000A11002C081E3B82EF601B082F701822FD0
:1041600090E2882319F091938150FBCFF701E20F81
:10417000F11D108280E090E029960FB6F894DEBF22
:104180000FBECDBFDF91CF911F910F91FF90EF90A8
:10419000DF90CF90BF90AF909F907F906F905F9097
:1041A0004F900895A0E0B0E0E8EDF0E20C946E24AA
:1041B000EC017B016115710519F0DB018D939C9376
:1041C0008E010F5F1F4F7880872D90E00E9407239C
:1041D000892B11F0E801F4CFBDE27B1205C00F5F1F
:1041E0001F4F7980C1E008C0EBE27E1204C08E014F
:1041F0000E5F1F4F7980C0E06801F1E0CF1AD1084F
:1042000043E050E062ED70E0C6010E941023892B6C
:10421000F1F4680122E0C20ED11C45E050E06DECE3
:1042200070E0C6010E941023892B21F4680187E009
:10423000C80ED11CE114F10419F0D701CD92DC9223
:10424000C111FFC060E070E080E89FE703C143E078
:1042500050E06AEC70E0C6010E941023892B51F4F3
:10426000E114F10409F4F2C00E5F1F4FF70111834E
:104270000083ECC0680160E070E0CB0100E010E07A
:10428000F601D0EDD70DDA3058F52C2F2260622ED2
:104290002C2F2870C2FF05C0211128C00F5F1F4FAF
:1042A00025C0222311F001501109A5E0B0E09B01C7
:1042B000AC010E945F244B015C01880C991CAA1C74
:1042C000BB1CC501B4016D0F711D811D911D6839A5
:1042D000A9E97A078A07A9E19A0740F0C66005C0F4
:1042E000DE3F51F4C3FD44C0C8606C2EBFEFCB1A53
:1042F000DB0A7080C62DC4CF2D2F2F7D2531C1F54F
:1043000040814D3211F4C06106C04B3221F031962C
:1043100021E030E006C03296D60111964C9122E0A1
:1043200030E0A0EDA40FAA3018F0E21BF30B20C080
:1043300040E050E04038BCE05B075CF49A01220F9B
:10434000331F220F331F420F531F440F551F4A0FB5
:10435000511D3196DF0111972C91A0EDA20FAA30CB
:1043600048F3C4FF03C0519541955109040F151F2F
:10437000C1FF07C0E114F10421F03197D701ED939B
:10438000FC930E943D23C370C33019F06B017C0184
:1043900006C06B017C01F7FAF094F7F8F09420E086
:1043A00030E0A901C701B6010E943823882309F42F
:1043B00045C017FF06C0119501951109C9EED0E05F
:1043C00002C0C1E0D1E05E01B8E1AB1AB10846011C
:1043D000BE2DAF2D90E2E92EF12C0E151F0584F0B5
:1043E000FE012591359145915491B4018B2F9A2F5F
:1043F0000E949E234B01B82FA92F0E191F09EDCF44
:104400002497F594E794CA15DB0539F76401EB2E80
:10441000FA2E8E2D880F8F2D881F8F3F49F020E0B8
:1044200030E0A901C701B6010E943823811106C0FE
:1044300082E290E09093E8068093E706C701B60118
:1044400009C060E070E080E89FEF04C060E070E0C9
:1044500080EC9FE7CDB7DEB7EEE00C948A242830DD
:1044600008F027E03327DA01990F311D87FD9160AD
:1044700000966105710539F432602E5F3D9330E39B
:104480002A95E1F708959F3F30F080387105610566
:1044900009F03C5F3C5F3D93913008F08068911DCE
:1044A000DF93CF931F930F93FF92EF92192F987F73
:1044B0009695E92F96959695E90FFF27E15AFE4FBD
:1044C00099273327EE24FF24A701E70105900894DC
:1044D000079428F4360FE71EF81E491F511D660F7A
:1044E000771F881F991F0694A1F70590079428F459
:1044F000E70EF81E491F561FC11D770F881F991F11
:10450000661F0694A1F70590079428F4F80E491F3A
:10451000561FC71FD11D880F991F661F771F06944E
:10452000A1F70590079420F4490F561FC71FD81F05
:10453000990F661F771F881F0694A9F7849110951D
:10454000177041F0D695C79557954795F794E7941E
:104550001A95C1F7E5E0F1E0689415901591359151
:104560006591959105907FE27395E118F10A430BEF
:10457000560BC90BD009C0F7E10CF11E431F561FA3
:10458000C91FD01D7EF4703311F48A95E6CFE894EC
:10459000015030F0080F0AF40027021708F4202F0A
:1045A0002395022F7A3328F079E37D932A95E9F752
:1045B00010C07D932A9589F606949795679537954F
:1045C00017951794E118F10A430B560BC90BD00944
:1045D00098F023957E9173957A3308F070E37C937D
:1045E0002013B8F77E9170617D9330F0839571E36D
:1045F0007D9370E32A95E1F71124EF90FF900F91DE
:104600001F91CF91DF91992787FD90950895911182
:104610000C940B24803219F089508550C8F7089506
:10462000FB01DC014150504088F08D9181341CF039
:104630008B350CF4805E659161341CF06B350CF4A5
:10464000605E861B611171F3990B0895881BFCCF86
:10465000DC01FC01672F71917723E1F7329704C0E9
:104660007C916D9370836291AE17BF07C8F3089574
:104670000E947A2308F481E00895E89409C097FB2A
:104680003EF490958095709561957F4F8F4F9F4F29
:104690009923A9F0F92F96E9BB279395F69587956D
:1046A00077956795B795F111F8CFFAF4BB0F11F430
:1046B00060FF1BC06F5F7F4F8F4F9F4F16C08823D7
:1046C00011F096E911C0772321F09EE8872F762F0D
:1046D00005C0662371F096E8862F70E060E02AF04E
:1046E0009A95660F771F881FDAF7880F969587953A
:1046F00097F90895990F0008550FAA0BE0E8FEEF0F
:1047000016161706E807F907C0F012161306E40795
:10471000F50798F0621B730B840B950B39F40A268E
:1047200061F0232B242B252B21F408950A2609F46C
:10473000A140A6958FEF811D811D08950E94B12390
:104740000C9425240E94172438F00E941E2420F087
:10475000952311F00C940E240C94142411240C9421
:1047600059240E94362470F3959FC1F3950F50E0B1
:10477000551F629FF001729FBB27F00DB11D639F13
:10478000AA27F00DB11DAA1F649F6627B00DA11DB9
:10479000661F829F2227B00DA11D621F739FB00D5F
:1047A000A11D621F839FA00D611D221F749F3327CF
:1047B000A00D611D231F849F600D211D822F762F68
:1047C0006A2F11249F5750409AF0F1F088234AF045
:1047D000EE0FFF1FBB1F661F771F881F91505040B1
:1047E000A9F79E3F510580F00C940E240C94592497
:1047F0005F3FE4F3983ED4F3869577956795B79538
:10480000F795E7959F5FC1F7FE2B880F911D969551
:10481000879597F9089599278827089597F99F67AD
:1048200080E870E060E008959FEF80EC0895002438
:104830000A941616170618060906089500240A9405
:1048400012161306140605060895092E0394000C8B
:1048500011F4882352F0BB0F40F4BF2B11F460FF1A
:1048600004C06F5F7F4F8F4F9F4F089557FD905843
:10487000440F551F59F05F3F71F04795880F97FB24
:10488000991F61F09F3F79F08795089512161306DE
:104890001406551FF2CF4695F1DF08C0161617060D
:1048A0001806991FF1CF8695710561050894089542
:1048B000E894BB2766277727CB0197F908950E94D4
:1048C000A124A59F900DB49F900DA49F800D911DD4
:1048D000112408952F923F924F925F926F927F9290
:1048E0008F929F92AF92BF92CF92DF92EF92FF9200
:1048F0000F931F93CF93DF93CDB7DEB7CA1BDB0BAC
:104900000FB6F894DEBF0FBECDBF09942A88398850
:1049100048885F846E847D848C849B84AA84B98457
:10492000C884DF80EE80FD800C811B81AA81B98163
:10493000CE0FD11D0FB6F894DEBF0FBECDBFED0177
:104940000895A29FB001B39FC001A39F700D811D68
:104950001124911DB29F700D811D1124911D089588
:104960000E94C4240C9425240E941E2458F00E9406
:10497000172440F029F45F3F29F00C940E245111C4
:104980000C9459240C9414240E94362468F399231F
:10499000B1F3552391F3951B550BBB27AA2762173B
:1049A0007307840738F09F5F5F4F220F331F441F48
:1049B000AA1FA9F335D00E2E3AF0E0E832D091507C
:1049C0005040E695001CCAF72BD0FE2F29D0660F69
:1049D000771F881FBB1F261737074807AB07B0E8AC
:1049E00009F0BB0B802DBF01FF2793585F4F3AF0B2
:1049F0009E3F510578F00C940E240C9459245F3F8F
:104A0000E4F3983ED4F3869577956795B795F79537
:104A10009F5FC9F7880F911D9695879597F908951F
:104A2000E1E0660F771F881FBB1F621773078407BB
:104A3000BA0720F0621B730B840BBA0BEE1F88F7CA
:104A4000E09508950E9429256894B1110C94592489
:104A500008950E943E2488F09F5798F0B92F992717
:104A6000B751B0F0E1F0660F771F881F991F1AF059
:104A7000BA95C9F714C0B13091F00E945824B1E042
:104A800008950C945824672F782F8827B85F39F041
:104A9000B93FCCF3869577956795B395D9F73EF4F2
:104AA00090958095709561957F4F8F4F9F4F08959A
:104AB0000E947A2308F48FEF089597FB072E16F4CF
:104AC000009407D077FD09D00E94992507FC05D0F6
:104AD0003EF4909581959F4F0895709561957F4F15
:104AE0000895A1E21A2EAA1BBB1BFD010DC0AA1F2F
:104AF000BB1FEE1FFF1FA217B307E407F50720F047
:104B0000A21BB30BE40BF50B661F771F881F991FC1
:104B10001A9469F760957095809590959B01AC010A
:104B2000BD01CF010895EE0FFF1F0590F491E02D18
:104B30000994AA1BBB1B51E107C0AA1FBB1FA617E4
:104B4000B70710F0A61BB70B881F991F5A95A9F736
:104B500080959095BC01CD010895CF93DF9382306D
:104B6000910510F482E090E0E091EB06F091EC0604
:104B700020E030E0C0E0D0E0309711F14081518179
:104B800048175907C0F04817590761F4828193818B
:104B9000209719F09B838A832BC09093EC06809317
:104BA000EB0626C02115310519F04217530718F4FA
:104BB0009A01BE01DF01EF010280F381E02DDCCF1D
:104BC0002115310509F1281B390B2430310590F4EA
:104BD00012968D919C9113976115710521F0FB013F
:104BE0009383828304C09093EC068093EB06FD01CF
:104BF000329644C0FD01E20FF31F8193919322503E
:104C000031092D933C933AC02091E9063091EA0690
:104C1000232B41F420911501309116013093EA06BF
:104C20002093E906209113013091140121153105DB
:104C300041F42DB73EB74091170150911801241B44
:104C4000350BE091E906F091EA06E217F307A0F4CC
:104C50002E1B3F0B2817390778F0AC014E5F5F4FD2
:104C60002417350748F04E0F5F1F5093EA06409314
:104C7000E9068193919302C0E0E0F0E0CF01DF917B
:104C8000CF9108950F931F93CF93DF93009709F46B
:104C90008CC0FC013297138212820091EB061091B6
:104CA000EC060115110581F420813181820F931FDB
:104CB0002091E9063091EA062817390779F5F09333
:104CC000EA06E093E90671C0D80140E050E0AE1773
:104CD000BF0750F412962D913C911397AD01211509
:104CE000310509F1D901F3CF9D01DA013383228324
:104CF00060817181860F971F8217930769F4EC0119
:104D000028813981260F371F2E5F3F4F3183208343
:104D10008A819B8193838283452B29F4F093EC064F
:104D2000E093EB0642C01396FC93EE931297ED01CD
:104D3000499159919E01240F351FE217F30771F431
:104D400080819181840F951F029611969C938E937A
:104D50008281938113969C938E931297E0E0F0E00A
:104D6000D80112968D919C911397009719F0F80134
:104D70008C01F6CF8D919C9198012E5F3F4F820F51
:104D8000931F2091E9063091EA062817390769F444
:104D9000309729F41092EC061092EB0602C01382B1
:104DA00012821093EA060093E906DF91CF911F91DA
:104DB0000F910895A0E0B0E0E0EEF6E20C946E24CE
:104DC000EC01009721F4CB010E94AD25B8C0FC0195
:104DD000E60FF71F9C0122503109E217F30708F490
:104DE000ACC0D9010D911C91119706171707B0F0AF
:104DF0000530110508F49FC0C8010497861797076E
:104E000008F499C002501109061B170B0193119366
:104E10006D937C93CF010E9442268DC05B01A01A46
:104E2000B10A4C01800E911EA091EB06B091EC06E8
:104E300040E050E0E12CF12C109709F44AC0A8158D
:104E4000B905D1F56D907C901197630182E0C80E91
:104E5000D11CCA14DB0480F1A3014A195B096A0161
:104E600082E0C80ED11C1296BC9012971396AC919A
:104E7000B5E0CB16D10440F0B282A38351834083C6
:104E8000D9016D937C930AC00E5F1F4FC301800F41
:104E9000911FF90191838083EB2DFA2FE114F10426
:104EA00031F0D7011396FC93EE93129744C0F09320
:104EB000EC06E093EB063FC08D919C91119748174B
:104EC000590708F4AC017D0112960D90BC91A02DFC
:104ED000B3CF8091E9069091EA0688159905E1F42F
:104EE00046175707C8F48091130190911401009759
:104EF00041F48DB79EB74091170150911801841B62
:104F0000950BE817F907C8F4F093EA06E093E90671
:104F1000F901718360830FC0CB010E94AD257C0134
:104F2000009759F0A801BE010E94A927CE010E9456
:104F30004226C70104C0CE0102C080E090E0CDB798
:104F4000DEB7EEE00C948A2481E090E0F8940C94B3
:104F5000B927FB01DC0102C001900D924150504085
:104F6000D8F70895FB01DC0101900D920020E1F7D4
:064F70000895F894FFCF44
:104F760001390190E8FFFFFFFFFFFF00E10000009D
:104F86000000000000ED068000000000007B0A50D3
:104F960002AA051104DD0BC50BB20B585858585818
:104FA6005858313030000000005905120420050A17
:104FB600050408A304637265617253716C00746F13
:104FC6006D617254656D7048756D0000C180810019
:104FD600000000000000E30250027B022A03AC023C
:104FE6008A029E020000000056037F07AD05B10548
:104FF6006C03B305D105000000009E0C5002AA0503
:10500600A9059E0C9E0C9E0C000000007F09500214
:10501600AA05A905000000009E0C5002AA05A905D4
:10502600FE002F62696E2F617368002D630073683E
:10503600202F726F6F742F6D6F73717569746F5057
:1050460075622E736820006D6B646972002F746D33
:10505600702F44544831310073716C697465332084
:10506600002F746D702F44544831312F73656E7361
:105076006F722E64622000274352454154452054E6
:1050860041424C452073656E736F7228494420492E
:105096004E5445474552204E4F54204E554C4C20B9
:1050A6005052494D415259204B4559204155544F74
:1050B600494E4352454D454E542C204441544520BB
:1050C6004441544554494D45204E4F54204E554C6D
:1050D6004C2C2054454D50205245414C204E4F54A7
:1050E600204E554C4C2C2048554D205245414C20C5
:1050F6004E4F54204E554C4C293B27002744524FC7
:1051060050205441424C452073656E736F723B27A5
:10511600004552524F522044524F500A00455252B7
:105126004F52204352454154450A00204552524FA2
:1051360052202053454E534F5200204E4F20434F8E
:105146004E45435441444F002C204C454354555240
:1051560041532044452053454E534F522045525209
:105166004F4E4541532C206572726F723A200027CC
:10517600494E5345525420494E544F2073656E7321
:105186006F72202844415445202C2054454D502010
:105196002C2048554D292056414C5545532028432F
:1051A600555252454E545F54494D455354414D5006
:1051B6002C00202C003B206563686F20243F0054A0
:1051C600656D70657261747572610048756D6564B0
:1051D6006164002D6C696E6520002753454C45437C
:1051E600542054454D502046524F4D2073656E73E2
:1051F6006F72204F52444552204259204944204460
:10520600455343204C494D495420313B273B002709
:1052160053454C4543542048554D2046524F4D204A
:1052260073656E736F72204F524445522042592067
:1052360049442044455343204C494D495420313B71
:10524600273B002D2D2D54454D5045524154555266
:1052560041204D555920414C54412D2D2D0054458A
:105266004D50204D555920414C54410043002D2DA1
:105276002D54454D5045524154555241204D555996
:105286002042414A412D2D2D20200054454D5020CD
:105296004D55592042414A41002D2D2D48554D4529
:1052A600444144204D555920414C54412D2D2D004B
:1052B60048554D204D555920414C54410025002D4F
:1052C6002D2D48554D45444144204D5559204241C8
:1052D6004A412D2D2D0048554D204D55592042410E
:1052E6004A41002D2D2D54454D504552415455529D
:1052F6004120414C5441204E4F524D414C495A4158
:1053060044412D2D2D0054454D50204E4F524D41B8
:105316004C495A414441002D2D2D54454D5045527E
:1053260041545552412042414A41204E4F524D412F
:105336004C495A4144412D2D2D0054454D204E4F88
:10534600524D414C495A414441002D2D2D48554D51
:105356004544414420414C5441204E4F524D414C0E
:10536600495A4144412D2D2D0048554D204E4F524E
:105376004D414C495A414441004C454354555241D4
:10538600532044452053454E534F522045585452BE
:10539600454D41530A004C45435455524153205301
:1053A600454E534F520045585452454D41530044C3
:1053B6004542554700444553414354495641444F9D
:1053C6000052616E676F4D6178203D200052616E1C
:1053D600676F4D696E203D200054656D206D6178C4
:1053E600696D613A0048756D206D6178696D613A45
:1053F6000054656D206D696E696D613A0048756D82
:0C540600206D696E696D613A000D0A00AE
:00000001FF
