:100000000C9461020C9489020C9489020C9489026C
:100010000C9489020C9489020C9489020C94890234
:100020000C9489020C9489020C9454050C94D40508
:100030000C9489020C9489020C9489020C94890214
:100040000C9489020C9489020C9489020C94890204
:100050000C9489020C9489020C9489020C94F30D7F
:100060000C9489020C944B0C0C94250C0C94890272
:100070000C9489020C9489020C9489020C948902D4
:100080000C9489020C9489020C9489020C948902C4
:100090000C9489020C9489020C9489020C948902B4
:1000A0000C9489020C9489020C948902140B170B8E
:1000B000060B0A0B100B380B380B380B1B0B1F0BE6
:1000C000230B290B2D0B380B330B4E414E494E4958
:1000D0005459494E46CDCCCC3D0AD7233C17B7D115
:1000E0003877CC2B329595E6241FB14F0A000020BB
:1000F000410000C84200401C4620BCBE4CCA1B0E3A
:100100005AAEC59D7400407A10F35A00A0724E1882
:10011000090010A5D4E80000E87648170000E40BB9
:1001200054020000CA9A3B000000E1F5050000807F
:10013000969800000040420F000000A086010000D9
:1001400000102700000000E8030000000064000029
:100150000000000A00000000000100000000002C68
:1001600076D888DC674F0823DFC1DFAE59E1B1B72D
:1001700096E5E3E453C63AE651997696E8E6C284FA
:1001800026EB898C9B62ED407C6FFCEFBC9C9F4012
:10019000F2BAA56FA5F490055A2AF75C936B6CF937
:1001A000676DC11BFCE0E40D47FEF520E6B500D00D
:1001B000ED902E0300943577050080841E08000022
:1001C000204E0A000000C80C333333330F986E12F0
:1001D000831141EF8D2114893BE65516CFFEE6DBF6
:1001E00018D1844B381BF77C1D901DA4BBE4242040
:1001F0003284725E228100C9F124ECA1E53D2772B0
:10020000756E2D6272696467650A000A000A004310
:100210007265616E646F206469726563746F726980
:100220006F203A202F746D702F44544831312F7352
:10023000656E736F722E64620053514C6974652051
:1002400063726561646120636F7272656374616D6E
:10025000656E7465004552524F52204352454154D9
:100260004500656E747261004552524F52204452EF
:100270004F5000437265616E646F2073716C6974D6
:100280006520636F6E20727574613A202F746D70F3
:100290002F44544831312F73656E736F722E646230
:1002A000006572726F723A20696E76616C696420C3
:1002B0006D6F64652000202D3E2048756D6564617A
:1002C00064204D696E696D613A2000202D3E204802
:1002D000756D65646164204D6178696D613A2000D7
:1002E000202D3E2048756D656461642041637475FE
:1002F000616C3A2000202D3E2054656D706572615E
:1003000074757261204D696E696D613A2000202D0F
:100310003E2054656D7065726174757261204D6127
:1003200078696D613A2000202D3E2054656D70651E
:100330007261747572612041637475616C3A20005A
:100340006572726F72006572726F7200202D3E20AE
:1003500056657273696F6E2041637475616C3A20E3
:10036000000A496E74726F64756369656E646F200C
:100370006461746F7320656E206C61207461626CBF
:10038000612073656E736F72207369747561646147
:1003900020656E3A202F746D702F44544831312FF0
:1003A00073656E736F722E646200070605040100A8
:1003B000080A0B0C0D09080B0002020201000904D7
:1003C00000000102020000052400100105240101C3
:1003D000010424020605240600010705810310001C
:1003E0004009040100020A00000007050202400063
:1003F0000007058302400000040309041201000203
:10040000EF020140412341800001010203014172DA
:100410006475696E6F204C4C430041726475696E5F
:100420006F2059756E0000000000240027002A008C
:100430002D00300000000000250028002B002E00B9
:100440003100000000002300260029002C002F00AE
:100450000404040404030405020202020403020269
:10046000020206060606060604040202020404044A
:1004700008020110408040102040804080080204A3
:100480000180402010020110801020404020000018
:10049000000200090F0000030401000C000000002E
:1004A00000000000000000000000000000302E30BE
:1004B0002E302E30003132372E302E302E310000CB
:1004C000112811241FBECFEFDAE0DEBFCDBF28E038
:1004D000AAECB6E001C01D92A534B207E1F716E020
:1004E000A0E0B1E0E8E2F4E602C005900D92AA3C7B
:1004F000B107D9F712E0C1E6D2E004C02197FE01AE
:100500000E94E32FC036D107C9F70E94FC190C9452
:1005100012320C9400004091F2065091F3062091A3
:10052000F0063091F10642175307B4F49091E800B9
:100530009570E1F39091E80092FD19C08093F1006D
:100540008091F2069091F30601968F739927892B7B
:1005500019F48EEF8093E8008091F2069091F306F3
:1005600001969093F3068093F20681E0089580E06F
:100570000895DF92EF92FF920F931F93CF93DF9333
:10058000D82E8A017B01E40EF51EEB01CE15DF05A6
:1005900071F0D7FE03C0FE01849101C088810E94E2
:1005A0008B0221968111F2CF8FEF9FEF01C0C8011E
:1005B000DF91CF911F910F91FF90EF90DF90089501
:1005C000615030F02091F100FC0120830196F8CFBA
:1005D000289884E68093FD0608950E94F431CF9315
:1005E000DF93EC0188819981009711F00E9492308D
:1005F000198218821D821C821B821A82DF91CF9180
:1006000008950F931F93CF93DF931F92CDB7DEB75B
:1006100082E0898342E450E066EB73E080E80E9468
:10062000B9020E94E819DC0112960D911C911397F2
:100630000115110569F0D801ED91FC910280F3815B
:10064000E02DBE016F5F7F4FC801099597FF07C07E
:1006500089810F90DF91CF911F910F910895F8013B
:1006600000851185E5CF0F931F93CF93DF93EC01A6
:100670000E94E70D688779878A879B87E881F981DF
:100680000284F385E02DCE01099597FF17C00E94E3
:10069000E70D088519852A853B85DC01CB01801B88
:1006A000910BA20BB30B0C811D812E813F81801712
:1006B0009107A207B30710F38FEF9FEFDF91CF9160
:1006C0001F910F910895FC0180819181009711F095
:1006D0000C94DE2860E070E0CB010895FC012481D9
:1006E0003581232B31F421E061157105A1F0FB0167
:1006F00008C0FC01808191816115710531F421E010
:10070000FC018081882339F005C00E94023221E07B
:10071000892B09F020E0822F08950F931F93CF9328
:10072000DF93EC0188819981009729F02A813B8130
:100730002617370788F48B016F5F7F4F0E942A319D
:10074000009761F0998388831B830A832C813D8104
:10075000232B11F4FC01108281E001C080E0DF91C5
:10076000CF911F910F910895EF92FF920F931F93D6
:10077000CF93DF93FC01248135816115710511F45C
:1007800080E019C041155105A9F07B01EC018A01F7
:10079000020F131FB8010E948D03882389F328815B
:1007A00039818C819D81B701820F931F0E940B328A
:1007B0001D830C8381E0DF91CF911F910F91FF90FA
:1007C000EF900895CF93DF93EC016115710561F00F
:1007D000FB0101900020E9F73197AF01461B570B51
:1007E0000E94B403811103C0CE010E94EF02CE012A
:1007F000DF91CF910895CF93DF93EC01FB0144810A
:100800005581608171810E94B403811103C0CE01C2
:100810000E94EF02CE01DF91CF910895EF92FF92F7
:100820000F931F93CF93DF9300D000D0CDB7DEB7E7
:100830007C01862F4AE08E010F5F1F4FB80190E0C8
:100840000E94FD28F80101900020E9F73197AF01DF
:10085000401B510BB801C7010E94B4030F900F90C9
:100860000F900F90DF91CF911F910F91FF90EF901C
:100870000895CF93DF9300D0CDB7DEB769831A8296
:1008800041E050E0BE016F5F7F4F0E94B4030F90C4
:100890000F90DF91CF9108956115710551F0FB0123
:1008A00001900020E9F73197AF01461B570B0C94DC
:1008B000B40380E00895EF92FF920F931F93CF93BC
:1008C000DF93EC018B016115710551F0CB010E94A2
:1008D000E9287C01BC01CE010E948D03811104C076
:1008E000CE010E94EF0207C0FD82EC82B801888130
:1008F00099810E94E228CE01DF91CF911F910F9143
:10090000FF90EF900895EF92FF920F931F93CF9374
:10091000DF93EC017B018A01BA010E948D038111F2
:1009200004C0CE010E94EF0207C01D830C83B701F3
:10093000888199810E940B32CE01DF91CF911F9166
:100940000F91FF90EF900895CF93DF93EC01FB019F
:100950008617970761F0608171816115710529F033
:10096000448155810E94830402C00E94EF02CE019F
:10097000DF91CF910895FC01808191810C94923098
:10098000EF92FF920F931F93CF93DF93CDB7DEB714
:10099000A1970FB6F894DEBF0FBECDBF7C01CB018F
:1009A000BA01F70111821082138212821582148219
:1009B00042E0420F8E010F5F1F4F0E94BE2800973A
:1009C00069F0FC0101900020E9F73197AF01481B65
:1009D000590BBC01C7010E94830403C0C7010E94D8
:1009E000EF02A1960FB6F894DEBF0FBECDBFDF9128
:1009F000CF911F910F91FF90EF900895EF92FF928A
:100A00000F931F93CF93DF93CDB7DEB762970FB6E7
:100A1000F894DEBF0FBECDBF8C01CB01F80111826F
:100A20001082138212821582148250E09E012F5F81
:100A30003F4F7901B9010E94F228F701019000208F
:100A4000E9F73197AF014E195F09B701C8010E945C
:100A5000830462960FB6F894DEBF0FBECDBFDF9160
:100A6000CF911F910F91FF90EF900895FC0111829B
:100A7000108213821282158214820C94A404FC0149
:100A800011821082138212821582148261157105FF
:100A900051F0FB0101900020E9F73197AF01461BAF
:100AA000570B0C94830408951F920F920FB60F9268
:100AB00011242F933F934F935F936F937F938F9363
:100AC0009F93AF93BF93CF93EF93FF93C091E100B8
:100AD0008091E100837F8093E100C3FF0FC01092FB
:100AE000E90081E08093EB001092EC0082E38093B8
:100AF000ED001092FE0688E08093F000C2FF18C05F
:100B00000E94A2198091EF06882339F08091EF06A8
:100B100081508093EF06882389F18091FD06882318
:100B200039F08091FD0681508093FD06882341F1C4
:100B3000C4FF10C08091E2008E7E81608093E2004D
:100B40008091E1008F7E8093E1008091CB068E7EC4
:100B5000806111C0C0FF16C08091E2008E7E80616E
:100B60008093E2008091E1008E7E8093E10080918D
:100B7000CB068E7E81608093CB0604C05D9ACDCF7C
:100B8000289AD6CFFF91EF91CF91BF91AF919F91CE
:100B90008F917F916F915F914F913F912F910F9026
:100BA0000FBE0F901F9018951F920F920FB60F92C5
:100BB0001124CF92DF92EF92FF920F931F932F9306
:100BC0003F934F935F936F937F938F939F93AF93D5
:100BD000BF93EF93FF93CF93DF93CDB7DEB76C97BF
:100BE000DEBFCDBF1092E9008091E80083FFEDC128
:100BF00068E0CE0145960E94E00282EF8093E80013
:100C00008D8987FF05C09091E80090FFFCCF03C05D
:100C10009EEF9093E800982F907609F0C6C09E89C9
:100C20002F89188D91110CC0803829F48091CC0641
:100C30008093F10002C01092F1001092F10048C1BF
:100C4000422F50E0512B913051F4811141C141307C
:100C5000510509F03DC18091CC068D7F0BC09330CA
:100C600061F4811135C14130510509F031C18091E4
:100C7000CC0682608093CC062BC1953041F48091E4
:100C8000E80080FFFCCF20682093E30021C196306C
:100C900009F05FC0EB8CFC8C1092E9001092F30617
:100CA0001092F206123091F51092F1061092F006B1
:100CB0000E94010399E0BE016F5F7F4FDB01E92FC6
:100CC0001D92EA95E9F799831A8391E09E8390EA51
:100CD00098879AEF99872091F2063091F306275F63
:100CE0003F4F3C832B838D831092E9001092F306D3
:100CF0001092F206F092F106E092F00649E050E020
:100D000080E00E94B9020E940103E2C0F092F10665
:100D1000E092F0060E94E819DC011296ED90FC903A
:100D20001397E114F10409F4C0C0D701ED91FC91CF
:100D30000480F581E02DBE016B5E7F4FC7010995F0
:100D4000009719F00CF0C4C0C7C0F701E084F1842B
:100D5000E8CF973009F4C0C0983021F481E0809347
:100D6000F100B6C0993009F0B3C0837009F0B4C087
:100D7000EAE6F1E081E021E036E39081992361F039
:100D80008093E9002093EB0091919093EC003093D5
:100D9000ED008F5F873089F78EE78093EA0010922D
:100DA000EA008F898093FE0693C08B8D9C8D1092F4
:100DB000E9001092F3061092F2069093F1068093E8
:100DC000F006898D811156C08E899D89913A59F41A
:100DD000813209F081C047E050E06BE071E080E0D3
:100DE0000E94B90275C0913209F076C0833289F44D
:100DF000888D90E0982F88272F89822BA0E0B0E083
:100E00008093070190930801A0930901B0930A0110
:100E10005FC0803269F48091E80082FFFCCF67E018
:100E20008BE091E00E94E0028BEF8093E80006C027
:100E3000823209F04DC08F89809312018091CA06D9
:100E4000882319F0EEEFFAE002C0E0E0F8E08091CC
:100E50000B0190910C01A0910D01B0910E01803B0E
:100E60009440A105B10509F07BC08091120180FF7B
:100E700093C076C00E94E819DC0112960D911C9176
:100E800013970115110541F1D801ED91FC910190E5
:100E9000F081E02DBE016B5E7F4FC8010995811185
:100EA00017C0F80100851185ECCF113009F44EC050
:100EB000133091F48F89882309F445C0823081F47E
:100EC00040E86BE08AE194E00E94D427882321F077
:100ED0008EEF8093E80079C081E28093EB0075C0CB
:100EE000813029F440E86BE08EE094E0EDCF833070
:100EF00099F70E94E819DC011296ED90FC90139787
:100F00008E010F5F1F4F6801E114F10479F0D701E2
:100F1000ED91FC910680F781E02DB801C70109959C
:100F2000080F111DF701E084F184EECFD8011C9267
:100F3000F60101900020E9F73197BF016C197D0996
:100F400040E0C601C1CF68EF73E002C06CEF73E010
:100F50006115710509F2FB01449150E080E840CF32
:100F60000FB6F894A8958091600088618093600026
:100F7000109260000FBEA895EE3F2AE0F20739F00C
:100F80008091FE0A9091FF0A91838083A1CF1092F5
:100F9000FF0A1092FE0A9CCFEE3F8AE0F80731F07C
:100FA000808191819093FF0A8093FE0A87E797E7FB
:100FB000918380839BE088E10FB6F894A895809395
:100FC00060000FBE9093600083CF6C960FB6F894CC
:100FD000DEBF0FBECDBFDF91CF91FF91EF91BF91EB
:100FE000AF919F918F917F916F915F914F913F91C1
:100FF0002F911F910F91FF90EF90DF90CF900F9066
:101000000FBE0F901F901895EF92FF920F931F93B2
:10101000CF93DF93EC017B01042F64E976E00E941B
:101020003F05C7010E943303002E000C110B97FDF2
:101030000BC08017910741F0682FCE010E94390440
:10104000C7010E943303F3CFCE01DF91CF911F91EF
:101050000F91FF90EF9008950F931F93CF93DF931D
:10106000EC010E94E70D688779878A879B87E88172
:10107000F9810484F585E02DCE01099597FF17C00D
:101080000E94E70D088519852A853B85DC01CB0187
:10109000801B910BA20BB30B0C811D812E813F8114
:1010A00080179107A207B30710F38FEF9FEFDF912F
:1010B000CF911F910F9108954F925F926F927F92FF
:1010C000EF92FF920F931F93CF93DF93CDB7DEB7CD
:1010D000A1970FB6F894DEBF0FBECDBF7C01FA0119
:1010E000CB0119A2223008F42AE08E010F5D1F4FB8
:1010F000422E512C612C712CBF01A30192010E9440
:10110000C12FF901CA01015011096A3014F4605D60
:1011100001C0695CD8016C93232B242B252B61F72C
:10112000B801C7010E94100CA1960FB6F894DEBF5B
:101130000FBECDBFDF91CF911F910F91FF90EF9028
:101140007F906F905F904F9008950F931F93CF9370
:10115000DF93EC010E94100C8C0162E976E0CE0175
:101160000E94100C800F911FDF91CF911F910F9162
:1011700008950F931F93CF93DF93EC010E94EC0B24
:101180008C0162E976E0CE010E94100C800F911F65
:10119000DF91CF911F910F910895DC01ED91FC91AA
:1011A0000190F081E02D09944F925F926F927F92AF
:1011B0008F929F92AF92BF92CF92DF92EF92FF9267
:1011C000CF93DF93EC016A017B01B22E9A01AB0150
:1011D000C701B6010E94A82F882319F065E976E0BF
:1011E00027C026013701E89477F82FEF3FEF4FE74C
:1011F0005FE7C301B2010E94A82F81110DC02FEF3C
:101200003FEF4FE75FE7C301B2010E94162D1816AA
:101210001CF469E976E00CC02FEF3FEF4FE75FE485
:10122000C701B6010E94A32F18169CF46DE976E061
:10123000CE01DF91CF91FF90EF90DF90CF90BF90E4
:10124000AF909F908F907F906F905F904F900C9495
:10125000100C2FEF3FEF4FE75FECC701B6010E9484
:10126000162D87FDE3CF20E030E0A901C701B601CC
:101270000E94162D87FF0AC06DE2CE010E94CD08A4
:101280004C01F7FAF094F7F8F09402C0812C912CFD
:10129000A12C60E070E080E09FE3AB1441F020E01F
:1012A00030E040E251E40E94FB2EA394F6CF9B0174
:1012B000AC01C701B6010E948F2E2B013C010E9498
:1012C000742F6B017C010E941B2D9B01AC01C3019B
:1012D000B2010E948E2E2B013C012AE0B701A6012B
:1012E000CE010E945C087C01E80CF91CBB2031F0A7
:1012F0006EE2CE010E94CD08E80EF91EDB2CDD2047
:1013000029F120E030E040E251E4C301B2010E9443
:101310007C2D2B013C010E94742F4B01A12CB12C80
:101320002AE0B501A401CE010E945C08E80EF91E76
:10133000C501B4010E941B2D9B01AC01C301B20188
:101340000E948E2E2B013C01DA94D9CFC701DF9188
:10135000CF91FF90EF90DF90CF90BF90AF909F9094
:101360008F907F906F905F904F9008950C94100C29
:10137000DC01ED91FC91DB0114964D915C91159788
:101380006D917C910280F381E02D0994CF92DF92E0
:10139000EF92FF920F931F93CF93DF936C017A012B
:1013A0008B01C0E0D0E0CE15DF0589F0D8016D914A
:1013B0008D01D601ED91FC910190F081E02DC601E7
:1013C0000995892B11F47E0102C02196ECCFC7014B
:1013D000DF91CF911F910F91FF90EF90DF90CF9011
:1013E0000895FC01538D448D252F30E0842F90E02B
:1013F000821B930B541710F0CF9608950197089510
:10140000FC01918D828D981761F0828DDF01A80F0C
:10141000B11D5D968C91928D9F5F9F73928F90E02E
:1014200008958FEF9FEF0895FC01918D828D98179D
:1014300031F0828DE80FF11D858D90E008958FEFDA
:101440009FEF0895FC01918D228D892F90E0805CA3
:101450009F4F821B91098F739927089581E597E02B
:101460000E94220A21E0892B09F420E0822F0895AE
:10147000FC01848DDF01A80FB11DA35ABF4F2C9131
:10148000848D90E001968F739927848FA689B78900
:101490002C93A089B1898C9180648C93938D848DD9
:1014A000981306C00288F389E02D80818F7D8083A8
:1014B0000895EF92FF920F931F93CF93DF93EC0168
:1014C00081E0888F9B8D8C8D981305C0E889F98900
:1014D000808185FD24C0F62E0B8D10E00F5F1F4F1D
:1014E0000F731127E02E8C8DE8120CC00FB607FC8D
:1014F000FACFE889F989808185FFF5CFCE010E9476
:10150000380AF1CF8B8DFE01E80FF11DE35AFF4F32
:10151000F0820B8FEA89FB898081806207C0EE89A7
:10152000FF896083E889F98980818064808381E014
:1015300090E0DF91CF911F910F91FF90EF90089570
:10154000CF93DF93EC01888D8823C9F0EA89FB896A
:10155000808185FD05C0A889B9898C9186FD0FC061
:101560000FB607FCF5CF808185FFF2CFA889B98936
:101570008C9185FFEDCFCE010E94380AE7CFDF9135
:10158000CF91089580E090E0892B29F00E942E0AE7
:1015900081110C9400000895CF93DF931F92CDB773
:1015A000DEB76983DC01ED91FC910280F381E02DCF
:1015B00041E050E0BE016F5F7F4F09950F90DF91D2
:1015C000CF910895FC018485958597FD0BC09FB749
:1015D000F89482E08093E9008091F2009FBF90E050
:1015E000019608959FB7F89482E08093E900809176
:1015F000F2009FBF90E0089590E0FC013197EF303A
:10160000F105B0F5EA5AFF4F0C94E32F809180006A
:101610008F7703C0809180008F7D80938000089534
:1016200080918000877FF9CF84B58F7702C084B521
:101630008F7D84BD0895809190008F7707C0809141
:1016400090008F7D03C080919000877F80939000F1
:1016500008958091C0008F7703C08091C0008F7D76
:101660008093C00008958091C200877F8093C2005C
:1016700008953FB7F8948091F9069091FA06A091E9
:10168000FB06B091FC0626B5A89B05C02F3F19F0BC
:101690000196A11DB11D3FBFBA2FA92F982F8827F2
:1016A000820F911DA11DB11DBC01CD0142E0660F4D
:1016B000771F881F991F4A95D1F708958F929F929F
:1016C000AF92BF92CF92DF92EF92FF920F931F9350
:1016D000CF93DF937C018B016C0182E0C80ED11C9B
:1016E0004701E5E08E0E911CC0E0D0E0F60141918B
:1016F0006F0150E060E070E02AE0C8010E945C08E1
:101700005C016EE2C8010E94CD088A0D9B1DC80FC6
:10171000D91FC814D90451F7F701458150E060E0A2
:1017200070E02AE0C8010E945C088C0F9D1FDF91C9
:10173000CF911F910F91FF90EF90DF90CF90BF90CE
:10174000AF909F908F9008950E94D71990E00895D0
:101750000C94A2190F931F93CF93DF931F92CDB7D1
:10176000DEB78C01FC018485958597FF0EC0CE0104
:1017700001960E94AD19019719F4298130E002C049
:101780002FEF3FEFF80135872487F8018485958591
:101790000F90DF91CF911F910F910895CF93DF9319
:1017A0001F92CDB7DEB7FC018485958597FD05C0F6
:1017B0002FEF3FEF358724870BC0CE0101960E94A3
:1017C000AD19019719F4898190E002C08FEF9FEF66
:1017D0000F90DF91CF910895EF92FF920F931F9397
:1017E000CF93DF938C017B01C0E0D0E0F701EC0FD9
:1017F000FD1F6491662361F0D801ED91FC91019089
:10180000F081E02DC8010995892B11F02196EECFCA
:10181000CE01DF91CF911F910F91FF90EF9008952E
:101820006115710579F0FB0101900020E9F731970E
:10183000AF01461B570BDC01ED91FC910280F38157
:10184000E02D099480E090E008951F920F920FB66A
:101850000F9211242F933F934F935F936F937F9336
:101860008F939F93AF93BF93EF93FF9381E597E09F
:101870000E94380AFF91EF91BF91AF919F918F9194
:101880007F916F915F914F913F912F910F900FBE7C
:101890000F901F9018951F920F920FB60F92112460
:1018A0002F938F939F93EF93FF93E0916107F091B4
:1018B00062078081E0916707F091680782FD12C09E
:1018C000908180916A078F5F8F7320916B078217D9
:1018D00051F0E0916A07F0E0EF5AF84F958F80934E
:1018E0006A0701C08081FF91EF919F918F912F91A5
:1018F0000F900FBE0F901F901895CF93DF93282F56
:1019000030E0F901E257FB4F8491F901E159FB4FB7
:10191000D491F901E05BFB4FC491CC2391F081118C
:101920000E94FC0AEC2FF0E0EE0FFF1FEE5BFB4F76
:10193000A591B491EC91ED2381E090E021F480E059
:1019400002C080E090E0DF91CF9108951F93CF9384
:10195000DF93282F30E0F901E257FB4F8491F90122
:10196000E159FB4FD491F901E05BFB4FC491CC23CB
:10197000C9F0162F81110E94FC0AEC2FF0E0EE0F47
:10198000FF1FEC5CFB4FA591B4918FB7F894111138
:1019900005C09C91ED2FE095E92302C0EC91ED2B61
:1019A000EC938FBFDF91CF911F910895CF93DF9379
:1019B000EC0160E08E810E94A60C61E08E810E94A5
:1019C000A60C60E08E810E94A60C8BE891E0019746
:1019D000F1F7DF91CF910895CF93DF9390E0FC0171
:1019E000E159FB4F2491FC01E05BFB4F849188237C
:1019F00061F190E0880F991FFC01EA5DFB4FC591F2
:101A0000D491FC01EC5CFB4FA591B491611109C02C
:101A10009FB7F8948881209582238883EC912E23A8
:101A20000BC0623061F49FB7F8943881822F8095A3
:101A300083238883EC912E2B2C939FBF06C08FB7F6
:101A4000F894E8812E2B28838FBFDF91CF910895E2
:101A50008F929F92AF92BF92CF92DF92EF92FF92BE
:101A60006B017C010E94390B4B015C01C114D10454
:101A7000E104F104F1F00E94390BDC01CB0188197B
:101A80009909AA09BB09883E9340A105B10570F3E5
:101A900021E0C21AD108E108F10888EE880E83E03F
:101AA000981EA11CB11CC114D104E104F10419F762
:101AB000DDCFFF90EF90DF90CF90BF90AF909F90E1
:101AC0008F9008958F929F92AF92BF92CF92DF92A4
:101AD000EF92FF920F931F93CF93DF935C016B0103
:101AE0007A0180911201882309F45BC08091FE067F
:101AF000882309F456C08091CB0680FF05C08091F1
:101B0000E00082608093E000E70110E00AEF83E0EC
:101B1000882E9AE3992E2097D9F10E94D719811126
:101B20000AC0015009F43DC061E070E080E090E03F
:101B30000E94280DF0CF282F30E0C217D3070CF4F5
:101B40008C2F4FB7F8948092E9009091E80095FFB0
:101B50001DC0282F30E0C21BD30BF601982F9150E7
:101B600020F081918093F100FACFC20ED31E112391
:101B700019F09092E80009C08091E80085FD06C048
:101B80009092E80011E0209709F010E04FBFC3CF1A
:101B90001111C3CF5D9884E68093EF061E141F04D5
:101BA00044F081E090E0F5019383828380E090E04F
:101BB00001C0C701DF91CF911F910F91FF90EF906E
:101BC000DF90CF90BF90AF909F908F9008952FB7E8
:101BD000F8946091F5067091F6068091F706909161
:101BE000F8062FBF08951F920F920FB60F9211247F
:101BF0002F933F938F939F93AF93BF938091F5065D
:101C00009091F606A091F706B091F8063091F4068F
:101C100023E0230F2D3720F40196A11DB11D05C02F
:101C200026E8230F0296A11DB11D2093F406809390
:101C3000F5069093F606A093F706B093F806809108
:101C4000F9069091FA06A091FB06B091FC06019668
:101C5000A11DB11D8093F9069093FA06A093FB068F
:101C6000B093FC06BF91AF919F918F913F912F91BF
:101C70000F900FBE0F901F901895CF92DF92EF92AA
:101C8000FF920F931F93CF93DF937C016C0187E04A
:101C9000C80ED11CC0E0D0E0062F10E0B8010C2E19
:101CA00002C0759567950A94E2F76170F60181911B
:101CB0006F010E94A60C2196C430D10579F7C701A7
:101CC000DF91CF911F910F91FF90EF90DF90CF9018
:101CD0000C94D60CCF92DF92EF92FF920F931F934A
:101CE000CF93DF93EC01F62E642F8C810E94A60C1B
:101CF0008D818F3F19F060E00E94A60C8F850F2D1B
:101D000010E084FF25C06E0187E0C80ED11CE12CD5
:101D1000F12CB8010E2C02C0759567950A94E2F774
:101D20006170F60181916F010E94A60CFFEFEF1A1E
:101D3000FF0A88E0E816F10461F7CE01DF91CF9148
:101D40001F910F91FF90EF90DF90CF900C94D60CE5
:101D5000B80184E0759567958A95E1F7CE010E94F8
:101D60003D0E6F2DCE01DF91CF911F910F91FF900E
:101D7000EF90DF90CF900C943D0E41E00E946A0EF0
:101D800081E090E0089540E00C946A0E61E00E94CA
:101D9000C30E8BE39FE10197F1F708950F931F9313
:101DA000CF93DF9300D0CDB7DEB78C01FC018189E2
:101DB000882369F087E7898386858A8342E050E03B
:101DC000BE016F5F7F4F848595850E942317F801C0
:101DD000118A0F900F90DF91CF911F910F9108956D
:101DE0000F931F93CF93DF9300D000D0CDB7DEB712
:101DF00027E52B83FC0126852C8302E010E09E0161
:101E00002F5F3F4F42E050E0BE016D5F7F4F848502
:101E100095850E94B715898190E0982F88272A819F
:101E2000820F911D0F900F900F900F90DF91CF9127
:101E30001F910F9108950F931F93CF93DF9300D0BD
:101E40001F92CDB7DEB722E72983FC0126852A83BE
:101E500001E010E09E012D5F3F4F42E050E0BE01E7
:101E60006F5F7F4F848595850E94B71581E09B81C8
:101E7000913009F080E00F900F900F90DF91CF919B
:101E80001F910F910895AF92BF92CF92DF92EF9280
:101E9000FF920F931F93CF93DF9300D01F92CDB784
:101EA000DEB75C0182E58B83D5011F96ED91FC9135
:101EB0005097048115812081318182E0C82ED12C78
:101EC000FE0131967F0141E050E0BE016D5F7F4F22
:101ED0001C968D919C911D970E9497138A81D50124
:101EE0001E968C931E971F960D911C91509701156D
:101EF000110531F0C8010E94BB04C8010E94923054
:101F0000F501108A17868981811102C081E0818BD9
:101F10000F900F900F90DF91CF911F910F91FF9035
:101F2000EF90DF90CF90BF90AF9008950F931F93E5
:101F3000CF93DF93EC018B0161EA76E08F8598897E
:101F40000E944C04F80144815581608171818F8524
:101F50009889DF91CF911F910F910C94B403CF9288
:101F6000DF92EF92FF920F931F93CF93DF9300D0F6
:101F700000D000D0CDB7DEB78C016B0163EA76E00C
:101F8000CE0101960E943F05C8010E94CE0E86E058
:101F900090E00E94FD2F7C01BE016F5F7F4F0E9489
:101FA0003605F801F08AE786CE0101960E94BB044F
:101FB0006CEA76E0CE0101960E943F05BE016F5F9C
:101FC0007F4FC8010E94960FCE0101960E94BB046C
:101FD000B601C8010E94960FC8010E94430FC801B4
:101FE0000E941B0F882339F064E670E080E090E0E7
:101FF0000E94280DF4CFC8010E94F00E26960FB65D
:10200000F894DEBF0FBECDBFDF91CF911F910F912E
:10201000FF90EF90DF90CF900895EF92FF920F9393
:102020001F93CF93DF9300D01F92CDB7DEB7FC0193
:102030002289211118C07C01138A8FE4898380E4EE
:102040008B8386858A839F012C5E3F4F00E410E0DE
:1020500043E050E0BE016F5F7F4F848595850E940D
:10206000B715F701828B0F900F900F90DF91CF91F2
:102070001F910F91FF90EF900895CF93DF93EC01A4
:102080000E940D108A89882331F08B89C80FD11DD9
:102090008C8990E002C08FEF9FEFDF91CF91089580
:1020A000CF93DF93EC010E940D108A89882359F0A9
:1020B00081508A8B8B8991E0980F9B8BC80FD11D23
:1020C0008C8990E002C08FEF9FEFDF91CF91089550
:1020D00008950895FB012785FC012787FB012685CC
:1020E000FC0126870895FC01238134812627022ED6
:1020F0002295207F2025032E322F22952F70022635
:10210000269532272327220F220F220F20253483E2
:10211000238308958F929F92AF92BF92CF92DF92C6
:10212000EF92FF920F931F93CF93DF93CDB7DEB75C
:10213000AC970FB6F894DEBF0FBECDBF4C015A016D
:102140006901CE0101967C0188E2D7011D928A9532
:10215000E9F7D401ED91FC910084F185E02DA70110
:10216000C4010995009709F053C01CA61BA61AA626
:1021700019A6D401ED91FC910284F385E02D9E0116
:10218000275D3F4FAE01455D5F4FB701C401099523
:102190000097F1F50115110539F088E2F701D80132
:1021A00001900D928A95E1F7A114B10481F08CA5FC
:1021B000682F782F770F770B072E000C880B990B61
:1021C0000E941D2DF5016083718382839383C11466
:1021D000D10489F08AA5682F782F770F770B072E07
:1021E000000C880B990B0E941D2DD6016D937D93D9
:1021F0008D939C9313978BA59CA5009739F429A5E3
:102200003AA5232B29F48AE690E002C080E090E012
:10221000AC960FB6F894DEBF0FBECDBFDF91CF9165
:102220001F910F91FF90EF90DF90CF90BF90AF90F4
:102230009F908F9008958F929F92AF92BF92CF926E
:10224000DF92EF92FF920F931F93CF93DF93EC01F6
:102250008B015A016901E881F9810680F781E02D3F
:102260000995982EE881F981B801685F7F4F068053
:10227000F781E02DCE010995F82EE881F981B801AA
:10228000605F7F4F0680F781E02DCE010995882E93
:10229000E881F981B801685E7F4F0680F781E02D03
:1022A000CE010995E82EE881F981B801605E7F4F83
:1022B0000680F781E02DCE0109959F2D990D980D8F
:1022C0009E0D891310C02E2D30E03829F501318381
:1022D00020834F2D50E0CA019929F6019183808314
:1022E00080E090E002C089E690E0DF91CF911F91FD
:1022F0000F91FF90EF90DF90CF90BF90AF909F90A5
:102300008F90089540E050E080E0A7E0B0E0FB014E
:102310002191BF01FD01E41BF50B01C0220FEA95DD
:10232000EAF7820F4F5F5F4F4830510581F70895FC
:10233000CF92DF92EF92FF920F931F93CF93DF9391
:10234000CDB7DEB728970FB6F894DEBF0FBECDBF6E
:102350006A0179011D821E821F82188619821A82E3
:102360001B821C82DC01ED91FC910280F381E02D47
:102370009E012F5F3F4FAE014B5F5F4F09958C0170
:10238000892BB1F4C114D10441F06D817E818F811C
:1023900098850E946D2FF6016083E114F10441F0ED
:1023A00069817A818B819C810E946D2FD7016C930A
:1023B000C80128960FB6F894DEBF0FBECDBFDF91DF
:1023C000CF911F910F91FF90EF90DF90CF900895E4
:1023D000FC0187850895089580E090E00895CF93EB
:1023E000DF93EC010E940D108A8990E0DF91CF917C
:1023F0000895EF92FF920F931F93CF93DF93CDB782
:10240000DEB728970FB6F894DEBF0FBECDBF7C01B4
:102410008B0164E976E0CE0101964F8358870E94D4
:102420003F0562E170E0CE0101960E948D03D80164
:1024300012966C91CE0101960E940E046EE2CE01BE
:1024400001960E943904F8016381CE0101960E9431
:102450000E046EE2CE0101960E943904D801149652
:102460006C91CE0101960E940E046EE2CE0101969F
:102470000E943904F8016581CE0101960E940E0484
:10248000D701ED91FC9169817A810088F189E02D75
:102490004F815885C70109958C01CE0101960E9494
:1024A000BB04C80128960FB6F894DEBF0FBECDBF9F
:1024B000DF91CF911F910F91FF90EF9008958F9230
:1024C0009F92AF92BF92CF92DF92EF92FF92CF9303
:1024D000DF93EC016B010E94E70D4B015C01E12CE5
:1024E000F12C8D819E81DC01ED91FC910284F385BC
:1024F000E02D099597FF0FC00E94E70DDC01CB018D
:1025000088199909AA09BB098C159D05AE05BF0557
:1025100040F38FEF9FEFDF91CF91FF90EF90DF902F
:10252000CF90BF90AF909F908F900895AF92BF9241
:10253000DF92EF92FF920F931F93CF93DF93D62EEC
:10254000CA016AE070E00E94AD2FEB01181619066F
:102550000CF4219600E010E083E2A82EB12CE22ECC
:10256000F12C0C171D0764F4F5013197F1F78D2D4F
:102570000E947D0C8E159F0531F40F5F1F4FF1CF28
:102580008FEF9FEF02C080E090E0DF91CF911F912D
:102590000F91FF90EF90DF90BF90AF9008958F92D2
:1025A0009F92AF92BF92CF92DF92EF92FF920F93E2
:1025B0001F93CF93DF938C01EB017A0188E2DA015C
:1025C0001D928A95E9F761E08C2F0E94EC0C60E087
:1025D0008C2F0E94A60C64E170E080E090E00E94E5
:1025E000280D61E08C2F0E94A60C60E08C2F0E94C9
:1025F000EC0C83E790E00197F1F7D801ED91FC91A5
:102600000480F581E02D20E040E550E0BE01C801E6
:102610000995892BB9F5D801ED91FC910480F581DC
:10262000E02D21E040E550E0BE01C8010995892B6D
:1026300061F55701B8E2AB0EB11C83E2882E912CF4
:10264000D801ED91FC910480F581E02D20E042E37A
:1026500050E0BE01C8010995892BD1F4C12CD12CC1
:102660008C2F0E947D0C0197B1F4C4010197F1F702
:10267000BFEFCB1ADB0AE8E0CE16D10489F787E674
:1026800090E025C084E690E022C085E690E01FC07F
:1026900086E690E01CC081E0B4E0CB16D1040CF4D7
:1026A00080E0F70181937F01EA15FB0549F6D80127
:1026B000ED91FC910480F581E02D20E042E350E0B3
:1026C000BE01C8010995009711F088E690E0DF91FE
:1026D000CF911F910F91FF90EF90DF90CF90BF901F
:1026E000AF909F908F90089524E731E0FC013183F3
:1026F00020830C94CE0ECF93DF93EC018D819E81CD
:10270000DC01ED91FC910084F185E02D099518160E
:10271000190654F48D819E81DC01ED91FC910284B7
:10272000F385E02D0995EACFDF91CF9108952F929F
:102730003F924F925F926F927F928F929F92AF9251
:10274000BF92CF92DF92EF92FF920F931F93CF939E
:10275000DF93CDB7DEB72B970FB6F894DEBF0FBE71
:10276000CDBF9B878A875B011901FD82EC823A010C
:10277000600E711E872C7B82912C44244A94542C29
:102780009B01240F351F3F832E839101200F311FA2
:1027900039872887EA85FB858085981608F036C139
:1027A000AA85BB8514965C924E92139715968D91CF
:1027B0009C911697DC01ED91FC910190F081E02D48
:1027C0006FEF09956FEF8A859B850E947310EA85EC
:1027D000FB8585819681DC01ED91FC910190F08172
:1027E000E02DAA85BB856C910995EA85FB85608102
:1027F000CF010E947310AA85BB8515968D919C917F
:102800001697DC01ED91FC910190F081E02D682D8F
:1028100009956B818A859B850E947310EA85FB85EB
:1028200085819681DC01ED91FC910190F081E02D94
:10283000662D0995662D8A859B850E94731075010A
:102840002E813F81E216F306B1F0EA85FB85858192
:1028500096818701DC01ED91FC910190F081E02DE2
:10286000D7016D917D010995F80160818A859B856D
:102870000E947310E5CF7101AA85BB8515968D91D5
:102880009C91169728853985E216F30691F0870109
:10289000DC01ED91FC910190F081E02DD7016D916B
:1028A0007D010995F80160818A859B850E947310DE
:1028B000E3CFDC01ED91FC91AA85BB8514966C9168
:1028C0000190F081E02D0995EA85FB85858196814F
:1028D000DC01ED91FC910190F081E02DAA85BB8592
:1028E00013966C91099564E670E08A859B850E9439
:1028F0005F128F3F910509F07DC0EA85FB85548208
:1029000043826FEFCF010E94731065E070E08A850B
:102910009B850E945F12AA85BB856C91262F30E0B3
:102920008217930709F066C0CD010E9473106AE018
:1029300070E08A859B850E945F127C0197FD5AC0DA
:10294000682F8A859B850E9473106AE070E08A85F3
:102950009B850E945F128C0197FD4CC0682F8A8571
:102960009B850E947310EA821982E981FA810E0F19
:102970001F1FE12CF12C65E070E08A859B85E01635
:10298000F106A9F0EC14FD0491F00E945F1297FD8E
:102990000AC0EC81FD81EE0DFF1D8083682F8A85C2
:1029A0009B850E947310FFEFEF1AFF0AE4CF0E948D
:1029B0005F127C0197FD1EC065E070E08A859B85F3
:1029C0000E945F1297FD16C0FE2CEE248E0D9F1DF7
:1029D000AA85BB8513962D913C911497281739072A
:1029E00049F48C918F5F8C93C801C016D10680F496
:1029F000C6010EC0939464E670E080E090E00E940F
:102A0000280D8A859B850E947B13C4CE8FEF9FEF94
:102A10002B960FB6F894DEBF0FBECDBFDF91CF91DE
:102A20001F910F91FF90EF90DF90CF90BF90AF90EC
:102A30009F908F907F906F905F904F903F902F90DE
:102A40000895AF92BF92CF92DF92EF92FF920F93D1
:102A50001F93CF93DF93CDB7DEB72A970FB6F894C5
:102A6000DEBF0FBECDBF5C018EE48F83F501868192
:102A70009781988789871A8219821C821B821E82FD
:102A80001D8265EB74E0CE0101960E945B04F501A6
:102A90008185811106C06DEA74E0CE0101960E9425
:102AA0005B040D811E8129813A81CC24C394D12CF1
:102AB000CE010A967C0143E050E0BE01695F7F4F82
:102AC000F501848195810E94971381E09A85913068
:102AD00009F080E0F5018087CE0101960E94BB04D9
:102AE0002A960FB6F894DEBF0FBECDBFDF91CF910F
:102AF0001F910F91FF90EF90DF90CF90BF90AF901C
:102B00000895AF92BF92CF92DF92EF92FF920F9310
:102B10001F93CF93DF9300D0CDB7DEB7FC0187853D
:102B20008823B1F05A019B018CE6898386858A83CC
:102B3000C12CD12CE12CF12C8A0142E050E0BE01E5
:102B40006F5F7F4F848595850E949713C50102C0F2
:102B500080E090E00F900F90DF91CF911F910F9147
:102B6000FF90EF90DF90CF90BF90AF900895CF92FD
:102B7000DF92EF92FF920F931F936801790100E0BB
:102B800010E020E030E00E9497131F910F91FF901A
:102B9000EF90DF90CF900895AF92BF92CF92DF92E7
:102BA000EF92FF920F931F93CF93DF93CDB7DEB7D2
:102BB00027970FB6F894DEBF0FBECDBF5C019B0117
:102BC00083E489835A834B83FB0101900020E9F75A
:102BD00031978F01061B170BCC24C394D12CCE0147
:102BE00007967C0143E050E0BE016F5F7F4FD50147
:102BF0001C968D919C911D970E949713892BC1F172
:102C00008F81F501868793E69C838D8301E010E038
:102C10009E012A5F3F4F42E050E0BE016C5F7F4F54
:102C2000D5011C968D919C911D970E94B7158E81A0
:102C3000882339F061E070E080E090E00E94280D88
:102C4000E5CF81E0F50187870190F081E02D0688CE
:102C5000F789E02DC501099581110DC0D501ED91D0
:102C6000FC910488F589E02DC5010995F5011686CA
:102C700080E090E002C081E090E027960FB6F894E3
:102C8000DEBF0FBECDBFDF91CF911F910F91FF909F
:102C9000EF90DF90CF90BF90AF900895EF92FF92AA
:102CA0000F931F93CF93DF9300D01F92CDB7DEB762
:102CB000DC011F962C911F97222301F17C01ED91DD
:102CC000FC910084F185E02D0995892BC9F48CE4F1
:102CD0008983F70186858A8301E010E09E012D5FDC
:102CE0003F4F42E050E0BE016F5F7F4F8485958586
:102CF0000E94B71581E09B81913019F080E001C0FE
:102D000081E00F900F900F90DF91CF911F910F9165
:102D1000FF90EF900895EF92FF920F931F93CF9340
:102D2000DF9300D01F92CDB7DEB7FC0120892111BF
:102D300018C07C01118A8BE4898380E48B838685AB
:102D40008A839F012E5E3F4F00E410E043E050E095
:102D5000BE016F5F7F4F848595850E94B715F7018F
:102D6000808B0F900F900F90DF91CF911F910F915B
:102D7000FF90EF900895CF93DF93EC010E948B16A4
:102D80008889882331F08989C80FD11D8A8990E00C
:102D900002C08FEF9FEFDF91CF910895CF92DF9226
:102DA000EF92FF920F931F93CF93DF93EC016A0191
:102DB0007B0100E010E08889811106C0CE010E94ED
:102DC0008B168889882399F00F5F1F4F898991E0BE
:102DD000980F998BFE01E80FF11D8289F70181930D
:102DE0007F0188898150888B0C151D0520F3C8014F
:102DF000DF91CF911F910F91FF90EF90DF90CF90D7
:102E00000895CF93DF93EC010E948B168889882365
:102E100059F08150888B898991E0980F998BC80F60
:102E2000D11D8A8990E002C08FEF9FEFDF91CF9193
:102E30000895CF93DF93EC010E948B16888990E070
:102E4000DF91CF9108950F931F9300E010E020E0F1
:102E500030E00E94B7151F910F910895CF93DF9333
:102E600000D01F92CDB7DEB729E42983FC01268567
:102E70002A836B8343E050E0BE016F5F7F4F848500
:102E800095850E94231781E090E00F900F900F909E
:102E9000DF91CF910895CF93DF9300D0CDB7DEB708
:102EA00022E629836A8342E050E0BE016F5F7F4FD4
:102EB000FC01848195810E94231781E090E00F90AE
:102EC0000F90DF91CF910895CF93DF9300D01F92A1
:102ED000CDB7DEB7FC012785222389F08CE68983F4
:102EE00086858A836B8343E050E0BE016F5F7F4F2E
:102EF000848595850E94231781E090E002C080E0E0
:102F000090E00F900F900F90DF91CF9108950F9365
:102F10001F93CF93DF9300D0CDB7DEB78C01FC01B8
:102F20008785882369F08AE6898386858A8342E0DB
:102F300050E0BE016F5F7F4F848595850E94231707
:102F4000F8011786108A118A0F900F90DF91CF91A8
:102F50001F910F910895FC011382128288EE93E075
:102F6000A0E0B0E084839583A683B78384E791E0F3
:102F70009183808375876487118A128A138A0895E2
:102F8000CF92DF92EF92FF920F931F93CF93DF9335
:102F9000CDB7DEB7C257D1090FB6F894DEBF0FBE6A
:102FA000CDBF6B017C018A0166E078E0CE0101961D
:102FB0000E94AB176FEA76E0CE018F599F4F0E94B7
:102FC0003F05B801CE018B5A9F4F0E94360568EE2F
:102FD00074E0CE018B5A9F4F0E94E203BC01CE01E8
:102FE000855A9F4F0E943605CE018B5A9F4F0E94F3
:102FF000BB0422E0B701A601CE0189599F4F0E9470
:10300000C004BE0169597F4FCE0183599F4F0E9472
:10301000360568EE74E0CE0183599F4F0E94E203AB
:10302000BC01CE018B5A9F4F0E943605CE018359B9
:103030009F4F0E94BB04CE0189599F4F0E94BB0441
:10304000BE016F597F4FCE0189599F4F0E943605AF
:10305000BE01655A7F4FCE0189599F4F0E94FB03E5
:10306000BE016B5A7F4F0E94FB03BC01CE0101964B
:103070000E94AF0FCE0189599F4F0E94BB04CE0121
:103080008B5A9F4F0E94BB04CE01855A9F4F0E94CE
:10309000BB04CE018F599F4F0E94BB04CE01019605
:1030A0000E947413CE58DF4F0FB6F894DEBF0FBEE8
:1030B000CDBFDF91CF911F910F91FF90EF90DF90E7
:1030C000CF900895EF92FF920F931F93CF93DF93CA
:1030D000EC01623018F08F8588608F876B8B1C8ABB
:1030E00080E48D8B80E18E8B80E58F8B61E08C811D
:1030F0000E94EC0C8D818F3F19F061E00E94EC0C76
:1031000061E08E810E94EC0C7E0187E0E80EF11CEC
:1031100000E010E08F8584FD03C084E090E002C0F1
:1031200088E090E0081719074CF461E0F7018191FD
:103130007F010E94EC0C0F5F1F4FECCF8BE39DE0F3
:103140000197F1F760E08C810E94A60C60E08E810F
:103150000E94A60C8D818F3F19F060E00E94A60CA2
:103160006F8564FD1DC063E0CE010E943D0E0BE43F
:1031700016E4C8010197F1F763E0CE010E943D0E0D
:10318000C8010197F1F763E0CE010E943D0E83E58F
:1031900092E00197F1F762E0CE010E943D0E16C069
:1031A0006062CE010E94C30E8BE496E40197F1F7B2
:1031B0006F856062CE010E94C30E83E592E00197A5
:1031C000F1F76F856062CE010E94C30E6F85606269
:1031D000CE010E94C30E84E0888B6CE0CE010E9479
:1031E000C30ECE010E94C60E82E0898B66E0CE013E
:1031F000DF91CF911F910F91FF90EF900C94C30E30
:10320000EF92FF920F931F93CF93DF93CDB7DEB76B
:1032100027970FB6F894DEBF0FBECDBF7C018B01A0
:1032200068EC76E0CE0101960E943F05B701CE0121
:1032300001960E944C0461EA76E0CE0101960E945C
:103240004C04B801CE0101960E944C044D815E8170
:1032500069817A8101E010E09E01295F3F4F86E09D
:1032600098E00E94B715CE0101960E94BB042796F4
:103270000FB6F894DEBF0FBECDBFDF91CF911F9187
:103280000F91FF90EF9008950F931F93CF93DF93CB
:10329000EC0122E00E94D4088C0162E976E0CE01C4
:1032A0000E94100C800F911FDF91CF911F910F9101
:1032B0000895643008F063E090910108691710F0F8
:1032C0006FEF690FE62FF0E0E251F84F9489682F15
:1032D000690F60688EEE97E00C94C30ECF92DF9278
:1032E000EF92FF92CF93DF936C01990FEE08FF08E6
:1032F000F7FE1BC06DE28EEE97E00E94CD08EC0158
:1033000044275527BA014C195D096E097F092AE047
:103310008EEE97E00E945C088C0F9D1FDF91CF918D
:10332000FF90EF90DF90CF9008952AE0B701A601BB
:103330008EEE97E0DF91CF91FF90EF90DF90CF90EE
:103340000C945C0883E08093E9008091F20088236C
:1033500019F08AE38093E8000895FC018091FE064D
:10336000811103C08FEF9FEF08959FB7F89482E01B
:103370008093E9002091F20030E01216130614F455
:1033800021E030E02115310559F0289884E680933A
:10339000FD068091F10080838091F200882319F06E
:1033A0009FBFC90108958BE68093E800F9CF2FB73E
:1033B000F89483E08093E9009091E800892F80726F
:1033C00095FF04C09091F20080E4891B2FBF0895FF
:1033D00080911F0881110DC082E080931B0884E05A
:1033E00080931C0810921E0810921D0881E08093A3
:1033F0001F088BE198E00895CF93DF93CDB7DEB738
:10340000CE55D1400FB6F894DEBF0FBECDBF789435
:1034100084B5826084BD84B5816084BD85B58260D9
:1034200085BD85B5816085BD80916E00816080938A
:103430006E001092810080918100826080938100F3
:103440008091810081608093810080918000816003
:1034500080938000809191008260809391008091A0
:1034600091008160809391008091900081608093B1
:1034700090008091C10084608093C1008091C10060
:1034800082608093C1008091C10081608093C100FF
:103490008091C30081608093C3008091C0008260EE
:1034A0008093C0008091C20081608093C2008091AF
:1034B0007A00846080937A0080917A0082608093A1
:1034C0007A0080917A00816080937A0080917A00FE
:1034D000806880937A001092FE061092CC061092BB
:1034E000CB068091D70081608093D70080EA8093DB
:1034F000D80089B5806189BD89B5826089BD09B46C
:1035000000FEFDCF61E070E080E090E00E94280DB9
:103510008091D8008F7C80618093D8008091E000FA
:10352000807F8093E0008091E1008E7E8093E100B7
:103530008DE08093E200559A209AEEEFFFE78591A7
:1035400094918B3F9C4D19F481E08093CA06E091E1
:103550000F08F0911008A089B18982E08C93A485AE
:10356000B5851C92A685B78587E08C93108EA489BB
:10357000B58986E08C93A289B3898C9180618C9304
:10358000A289B3898C9188608C93A289B3898C912C
:1035900080688C930288F389E02D80818F7D808301
:1035A00080910D088111D0C081E080930D0886E0E4
:1035B00098E00E947B1368EE73E080E090E00E9448
:1035C000280D80910B0890910C08DC01ED91FC9185
:1035D0000084F185E02D09951816190644F355E08D
:1035E000F52EEE24E39462E3D62EE9E1F1E0DE016C
:1035F000AB5ABF4F8F2D01900D928A95E1F7E09263
:103600000E0845E050E0BE016B5A7F4F86E098E01F
:103610000E94231763E080910B0890910C080E9490
:10362000CD086AEF70E080E090E00E94280D6DE028
:1036300072E080910B0890910C080E94EC0B6AEFED
:1036400070E080E090E00E94280D6BE072E08091D5
:103650000B0890910C080E94EC0B64EF71E080E085
:1036600090E00E94280D6FEF71E080910B0890911F
:103670000C080E94EC0B64EF71E080E090E00E9487
:10368000280D86E098E00E947B13EEE1F1E0DE0178
:1036900011968F2D01900D928A95E1F7D0920E0828
:1036A00004E010E09E0127553F4F45E050E0BE0189
:1036B0006F5F7F4F86E098E00E94B7158F3FBFEFA6
:1036C0009B0739F468EE73E080E090E00E94280DDB
:1036D0008CCFC755DF4F2881C95AD0402111FFCF69
:1036E000049749F5C655DF4F2881CA5AD04030E0CB
:1036F0002053310984E6829FA001839F500D11243D
:10370000C555DF4F2881CB5AD04030E020533109D6
:103710006AE0629FC001639F900D1124840F951F82
:10372000C455DF4F2881CC5AD04030E020533109B6
:10373000820F931F02C084E690E090930808809364
:10374000070882E380930E0862E08EEE97E00E9405
:10375000621860E080E00E9459198FEF9FEF90930C
:103760000C0780930B076FE072E08FEF96E00E94EA
:10377000B90866E078E0CE0101960E94AB1764EECE
:1037800071E0CE018B5A9F4F0E943F05CE010196FA
:103790000E94CE0E86E090E00E94FD2F8C01BE01BB
:1037A0006B5A7F4F0E943605198B088BCE018B5ABE
:1037B0009F4F0E94BB046AEE71E0CE018B5A9F4F6F
:1037C0000E943F05BE016B5A7F4FCE0101960E94B9
:1037D000960FCE018B5A9F4F0E94BB04CE010196DB
:1037E0000E94430FCE0101960E941B0F882339F0DF
:1037F00064E670E080E090E00E94280DF3CFCE01F7
:1038000001960E94F00ECE0101960E94741363E7A8
:1038100072E08FEF96E00E94B90866E078E0CE0192
:103820008B5A9F4F0E94AB1766E078E0CE0101965D
:103830000E94AB1765EF71E0CE01855E9E4F0E943E
:103840003F056EEF71E0CE018B5E9E4F0E943F05FB
:1038500064E172E0CE01815F9E4F0E943F0569E9FD
:1038600072E0CE01875F9E4F0E943F05BE01655EFC
:103870007E4FCE0187559F4F0E943605BE016B5E7D
:103880007E4FCE0187559F4F0E94FB03BE01675FAD
:103890007E4F0E94FB03BC01CE018B5A9F4F0E94BA
:1038A000AF0FCE0187559F4F0E94BB04CE018B5AAC
:1038B0009F4F0E940D10A8968FADA897882391F175
:1038C000CE018B5A9F4F0E945010813379F768E6E2
:1038D00072E08FEF96E00E94B9084AE061E971E07A
:1038E000CE0187559F4F0E94FE0463E371E0CE0135
:1038F00083509F4F0E943F056EEA72E0CE018D5FBC
:103900009E4F0E943F05CE018D5F9E4F0E94BB04DB
:10391000CE0183509F4F0E94BB04CE0187559F4F1D
:103920000E94BB0460ED77E080E090E00E94280DEB
:10393000BE01655E7E4FCE0187559F4F0E943605C2
:10394000BE016B5E7E4FCE0187559F4F0E94FB03E9
:10395000BE01615F7E4F0E94FB03BC01CE01019658
:103960000E94AF0FCE0187559F4F0E94BB04CE012E
:1039700001960E940D108B898823F1F162E672E0B6
:103980008FEF96E00E94B908CE0101960E94501078
:10399000813361F565E572E08FEF96E00E94B9082A
:1039A0004AE061EA71E0CE0187559F4F0E94FE0414
:1039B00063E371E0CE0183509F4F0E943F056AEBA5
:1039C00072E0CE018D5F9E4F0E943F05CE018D5F5C
:1039D0009E4F0E94BB04CE0183509F4F0E94BB04A8
:1039E000CE0187559F4F0E94BB0406C069E372E079
:1039F0008FEF96E00E94B9080E94A219CE01875F5E
:103A00009E4F0E94BB04CE01815F9E4F0E94BB046B
:103A1000CE018B5E9E4F0E94BB04CE01855E9E4F01
:103A20000E94BB04CE0101960E947413CE018B5AF2
:103A30009F4F0E9474130E94E70D7093CE0660930F
:103A4000CD0681E080931A0881E198E00E9421155B
:103A500048EEC42E43E0D42EE12CF12C8BE6669682
:103A60008FAF669701E010E09E012F5F3F4F41E06E
:103A700050E0BE016B5A7F4F809115089091160857
:103A80000E94B715892B49F5C555DF4F1982188259
:103A9000CB5AD040C355DF4FC882D982EA82FB821D
:103AA000CD5AD04080E491E0C755DF4F9983888399
:103AB000C95AD04086E098E0CB54DF4F9983888381
:103AC000C55BD040C954DF4F1882C75BD040C85493
:103AD000DF4F1882C85BD0402AC08981C555DF4FAF
:103AE00019821882CB5AD040C355DF4FC882D98281
:103AF000EA82FB82CD5AD04020E431E0C755DF4F47
:103B000039832883C95AD04026E038E0CB54DF4FB0
:103B100039832883C55BD040C954DF4F8883C75B96
:103B2000D04081E0C854DF4F8883C85BD040C75481
:103B3000DF4F1882C95BD040C854DF4F8881C85B13
:103B4000D040882309F47FC2C555DF4F8881998111
:103B5000CB5AD04069969FAF8EAF6997C355DF4F60
:103B600088819981AA81BB81CD5AD0406D968CAF56
:103B70009DAFAEAFBFAF6D97CF54DF4F88819981B6
:103B8000AA81BB81C15BD040A1968CAF9DAFAEAF87
:103B9000BFAFA19700E411E067961FAF0EAF679724
:103BA000CB54DF4F88819981C55BD040A3969FAFEE
:103BB0008EAFA397C954DF4F8881C75BD040A496CE
:103BC0008FAFA49781E0A5968FAFA597C754DF4F1D
:103BD0008881C95BD040A6968FAFA697C654DF4FA9
:103BE0008881CA5BD040A7968FAFA79780E4E9EAA7
:103BF000F0E0EC0FFD1F7296A5E5B0E0AC0FBD1F25
:103C0000529601900D928A95E1F74FE2BE016B5AF0
:103C10007F4FCE01815F9E4F0E94040868EC72E0E6
:103C2000CE01815F9E4F0E946E038823A9F06CE451
:103C300073E0CE018B5A9F4F0E94EC0B60ED72E057
:103C4000CE018B5A9F4F0E94A50860ED72E088EC70
:103C500092E00E940019EDC166ED72E0CE01815F35
:103C60009E4F0E946E03882309F4DCC169968EADD5
:103C70009FAD69979C838B836D968CAD9DADAEADEA
:103C8000BFAD6D978D839E83AF83B887A1968CADB2
:103C90009DADAEADBFADA19789879A87AB87BC8735
:103CA0001A830983A3968EAD9FADA3979E878D87B8
:103CB000A4968FADA4978F87A5968FADA597888B77
:103CC000A6968FADA697898BA7968FADA7978A8B5F
:103CD00080E4E5E5F0E0EC0FFD1F7296DE015396FF
:103CE00001900D928A95E1F7CE0101960E942C0871
:103CF00097FD1BC08D32910541F0C0970A9728F0BF
:103D0000CE0101960E940117EFCFCE0101960E94CD
:103D10000117CE0101960E942C089C012053310905
:103D20002A30310590F3019781F3CE0101960E946C
:103D300001178F9729F060E473E0CE01019677C1F7
:103D40004DE0BE016F5F7F4FCE01875F9E4F0E94A7
:103D500004086EED72E0CE01875F9E4F0E946E03F5
:103D6000882309F493C067E273E0CE0101960E94B4
:103D7000EC0B4091E7065091E8066091E9067091DE
:103D8000EA06CE0101960E9444196EE073E0CE016E
:103D900001960E94B90822E040E050E060E771E43B
:103DA000CE0101960E94D40865EF72E0CE01019623
:103DB0000E94B90822E040E050E060E271E4CE01E8
:103DC00001960E94D4084091E7065091E806609160
:103DD000E9067091EA0622E0CE0183509F4F0E94CF
:103DE000C0046AEE72E0CE018D5F9E4F0E943F05D7
:103DF000C350DF4F68817981CD5FD040CD5FDE4F0A
:103E000088819981C350D1400E940019CE018D5FF5
:103E10009E4F0E94BB04CE0183509F4F0E94BB0463
:103E200022E040E050E060E771E4CE0183509F4F14
:103E30000E94C0046DEF72E0CE018D5F9E4F0E9424
:103E40003F05C350DF4F68817981CD5FD040CD5FA2
:103E5000DE4F88819981C350D1400E940019CE0164
:103E60008D5F9E4F0E94BB04CE0183509F4F0E94E6
:103E7000BB0422E040E050E060E271E4CE018350F8
:103E80009F4F0E94C00460E173E09BC063E273E057
:103E9000CE01875F9E4F0E946E03882309F4AFC056
:103EA00060EE72E0CE0101960E94EC0B4091E306B9
:103EB0005091E4066091E5067091E606CE01019608
:103EC0000E9444196BEC72E0CE0101960E94EC0B4B
:103ED00040E050E060EA71E4CE0101960E9444198E
:103EE00066EB72E0CE0101960E94B90822E040E044
:103EF00050E060E271E4CE0101960E94D408409146
:103F0000E3065091E4066091E5067091E60622E032
:103F1000CE0183509F4F0E94C0046BE273E0CE013C
:103F20008D5F9E4F0E943F05C350DF4F68817981AE
:103F3000CD5FD040CD5FDE4F88819981C350D140A5
:103F40000E940019CE018D5F9E4F0E94BB04CE01DE
:103F500083509F4F0E94BB0422E040E050E060EAA3
:103F600071E4CE0183509F4F0E94C0046AE373E066
:103F7000CE018D5F9E4F0E943F05C350DF4F688189
:103F80007981CD5FD040CD5FDE4F88819981C3506C
:103F9000D1400E940019CE018D5F9E4F0E94BB044C
:103FA000CE0183509F4F0E94BB0422E040E050E0CE
:103FB00060E271E4CE0183509F4F0E94C00469E427
:103FC00073E0CE018D5F9E4F0E943F05C350DF4FCF
:103FD00068817981CD5FD040CD5FDE4F8881998146
:103FE000C350D1400E940019CE018D5F9E4F0E94A8
:103FF000BB04CE0183509F4F0E94BB040DC061EAF9
:1040000072E0CE0101960E94EC0BBE01675F7E4F0D
:10401000CE0101960E94B809CE01875F9E4F0E9493
:10402000BB0407C066E473E0CE018B5A9F4F0E9429
:10403000B908CE01815F9E4F0E94BB04CE01875517
:104040009F4F0E9487170E94E70D00910301109176
:10405000040120910501309106014B015C01801A99
:10406000910AA20AB30A40ED841647E09406A1041F
:10407000B10408F492C66093030170930401809325
:10408000050190930601C25ADE4F1882CE55D140E9
:10409000C35ADE4F1882CD55D14000E010E09E019A
:1040A000235A3E4FAE01425A5E4F67E070E081E016
:1040B00091E00E9498115C01892B09F467C060E0CF
:1040C00080E00E94591968E573E08EEE97E00E9447
:1040D000B60961E081E00E94591967E673E08EEE4F
:1040E00097E00E94B60968EE73E080E090E00E94DD
:1040F000280D8EEE97E00E94C60E68EE73E080E019
:1041000090E00E94280D4AE062E571E0CE01019640
:104110000E94FE046CE571E0CE018B5A9F4F0E9415
:104120003F054AE0B501CE0183509F4F0E94FE0437
:1041300065E773E0CE018D5F9E4F0E943F05BE0193
:1041400063507F4FCE018D5F9E4F0E94FB03BC01E9
:10415000CE0187559F4F0E943605CE0187559F4F50
:104160000E94BB04CE018D5F9E4F0E94BB04CE0116
:1041700083509F4F0E94BB04CE018B5A9F4F0E94D9
:10418000BB04CE0101960E94BB0407C6C25ADE4F93
:104190001881CE55D140143608F0C4C5C35ADE4F3D
:1041A0006881CD55D140643608F0BCC570E080E030
:1041B00090E00E941B2D4B015C01612F70E080E0BC
:1041C00090E00E941B2D2B013C018091000188236F
:1041D00041F061E673E08FEF96E00E94B90810921B
:1041E000000166E078E0CE0187559F4F0E94AB1733
:1041F00065EF71E0CE01895A9E4F0E943F056EEF38
:1042000071E0CE01895A9E4F0E944C0422E0B50114
:10421000A401CE0101960E94C00422E0B301A201D4
:10422000CE018B5A9F4F0E94C0046CE973E0CE010F
:1042300083509F4F0E943F05BE016B5A7F4FCE01B6
:1042400083509F4F0E94FB036FED73E00E94E203D7
:10425000BE016F5F7F4F0E94FB0365E972E00E9421
:10426000E203DC0114964D915C9115976D917C9160
:10427000CE01895A9E4F0E94B403CE0183509F4FB6
:104280000E94BB04CE018B5A9F4F0E94BB04CE01FB
:1042900001960E94BB0462EE73E0CE01895A9E4FE4
:1042A0000E944C04BE01695A7E4FCE0187559F4F34
:1042B0000E94AF0F6CEE73E0CE0101960E943F05A5
:1042C000AE014F5F5F4FC301B2010E94C017CE0124
:1042D00001960E94BB0460ED77E080E090E00E94D0
:1042E000280D68EF73E0CE0101960E943F05AE01F4
:1042F0004F5F5F4FC501B4010E94C017CE01019608
:104300000E94BB04CE0187559F4F0E940D10C554DB
:10431000DF4F8881CB5BD040882309F4D2C4CE0123
:1043200087559F4F0E94501066E078E0CE018B5A6F
:104330009F4F0E94AB1766E078E0CE0101960E9485
:10434000AB1765EF71E0CE018F5A9E4F0E943F057B
:1043500060E074E0CE01855B9E4F0E943F056EEFEA
:1043600071E0CE018B5B9E4F0E943F0567E074E0D9
:10437000CE01815C9E4F0E943F056CE374E0CE014C
:10438000875C9E4F0E943F05BE016F5A7E4FCE0153
:1043900083509F4F0E943605BE01655B7E4FCE0164
:1043A00083509F4F0E94FB03BE016B5B7E4F0E94B8
:1043B000FB03BE01615C7E4F0E94FB03BC01CE018A
:1043C0008B5A9F4F0E94AF0FCE0183509F4F0E9488
:1043D000BB0464E976E0CE018D5C9E4F0E943F05F0
:1043E00064E976E0CE01835D9E4F0E943F05CE01D9
:1043F0008B5A9F4F0E940D10A8968FADA8978823C7
:1044000021F1CE018B5A9F4F0E945010182FCE01E0
:104410008B5A9F4F0E940D10A8968FADA8978823A6
:1044200031F0612FCE018D5C9E4F0E943904812FA7
:10443000012E000C990BC0970A97C8F6612FCE0188
:10444000835D9E4F0E943904D2CFBE016F5A7E4FCA
:10445000CE0183509F4F0E943605BE01655B7E4FA3
:10446000CE0183509F4F0E94FB03BE016B5B7E4FCA
:104470000E94FB03BE01675C7E4F0E94FB03BC01F0
:10448000CE0101960E94AF0FCE0183509F4F0E9434
:10449000BB0464E976E0CE01895D9E4F0E943F0532
:1044A00064E976E0CE018F5D9E4F0E943F05CE010C
:1044B00001960E940D108B89882301F1CE0101968F
:1044C0000E945010182FCE0101960E940D108B896A
:1044D000882331F0612FCE01895D9E4F0E943904FF
:1044E000812F012E000C990BC0970A9700F7612FBE
:1044F000CE018F5D9E4F0E943904D9CFBE01695D08
:104500007E4FCE018B5E9E4F0E943605CE018F5DA1
:104510009E4F0E94630320E030E040E251E40E949D
:10452000FB2E2B013C01BE016D5C7E4FCE01855EF2
:104530009E4F0E943605CE01835D9E4F0E9463030D
:1045400020E030E040E251E40E94FB2E4B015C0190
:1045500064E976E0CE01815F9E4F0E943F0520E036
:1045600030E040E751E4C501B4010E94A32F87FD6C
:104570008FC08091E20681118BC08091D506909109
:10458000D60601969093D6068093D50660E774E030
:104590008FEF96E00E94A5088091D5069091D606EF
:1045A0000A9709F079C01092D6061092D5068EEEC1
:1045B00097E00E94C60E60E080E00E9459196BE807
:1045C00074E08EEE97E00E94B60961E082E00E94FE
:1045D0005919BE01655E7E4F8EEE97E00E94B809C4
:1045E0006FED8EEE97E00E94CD0869E974E08EEEE3
:1045F00097E00E94B60968EB7BE080E090E00E94C3
:10460000280D8EEE97E00E94C60E81E08093E206B0
:1046100022E040E050E060E771E4CE0183509F4F1C
:104620000E94C00422E0B501A401CE018D5F9E4F1F
:104630000E94C0046BE974E0CE01875F9E4F0E9428
:104640003F05BE016D5F7E4FCE01875F9E4F0E948A
:10465000FB0360EB74E00E94E203BE0163507F4FF6
:104660000E94FB03BC01CE01815F9E4F0E94A40407
:10467000CE01875F9E4F0E94BB04CE018D5F9E4F8F
:104680000E94BB04CE0183509F4F0E94BB0404C014
:104690001092D6061092D50620E030E040E251E4B8
:1046A000C501B4010E94162D18160CF44FC080915C
:1046B000DF0681114BC08091D3069091D4060196FC
:1046C0009093D4068093D3066DEC74E08FEF96E060
:1046D0000E94A5088091D3069091D4060A97D1F53F
:1046E0001092D4061092D3068EEE97E00E94C60E6A
:1046F00060E080E00E9459196AEE74E08EEE97E067
:104700000E94B60961E082E00E945919BE01655E0F
:104710007E4F8EEE97E00E94B8096FED8EEE97E027
:104720000E94CD0869E974E08EEE97E00E94B60918
:1047300068EB7BE080E090E00E94280D8EEE97E031
:104740000E94C60E81E08093DF0604C01092D4065A
:104750001092D30620E030E040EA51E4C301B201F8
:104760000E94A32F87FD8AC08091DC06811186C03C
:104770008091D1069091D20601969093D2068093B3
:10478000D10668EF74E08FEF96E00E94A508809153
:10479000D1069091D2060A9709F074C01092D20601
:1047A0001092D1068EEE97E00E94C60E60E080E087
:1047B0000E9459196FE075E08EEE97E00E94B609ED
:1047C00061E082E00E945919BE016B5E7E4F8EEE61
:1047D00097E00E94B8096CE175E08EEE97E00E94C8
:1047E000B60968EB7BE080E090E00E94280D8EEE39
:1047F00097E00E94C60E81E08093DC0622E040E054
:1048000050E060EA71E4CE0183509F4F0E94C004E3
:1048100022E0B501A401CE018D5F9E4F0E94C0042D
:104820006EE175E0CE01875F9E4F0E943F05BE019D
:104830006D5F7E4FCE01875F9E4F0E94FB036FE24C
:1048400075E00E94E203BE0163507F4F0E94FB03AC
:10485000BC01CE01815F9E4F0E94A404CE01875F00
:104860009E4F0E94BB04CE018D5F9E4F0E94BB04F1
:10487000CE0183509F4F0E94BB0404C01092D20609
:104880001092D10620E030E040E251E4C301B201D1
:104890000E94162D18160CF446C08091D90681117D
:1048A00042C068E475E08FEF96E00E94A508809111
:1048B000CF069091D00601969093D0068093CF06B4
:1048C0000A97A9F51092D0061092CF068EEE97E0C7
:1048D0000E94C60E60E080E00E9459196FE575E005
:1048E0008EEE97E00E94B60961E082E00E945919BD
:1048F000BE016B5E7E4F8EEE97E00E94B8096CE1C0
:1049000075E08EEE97E00E94B60968EB7BE080E0F0
:1049100090E00E94280D8EEE97E00E94C60E81E086
:104920008093D90604C01092D0061092CF06CE0113
:10493000815F9E4F0E94BB04CE01855E9E4F0E9408
:10494000BB04CE018B5E9E4F0E94BB04BE01695D1D
:104950007E4FCE0183509F4F0E943605CE018F5D62
:104960009E4F0E94630320E030E040E251E40E9449
:10497000FB2E4B015C01BE016D5C7E4FCE018D5F55
:104980009E4F0E943605CE01835D9E4F0E946303B9
:1049900020E030E040E251E40E94FB2E2B013C017C
:1049A00020E030E040E751E40E94162D87FF47C029
:1049B0008091E206882309F442C08091E00690913C
:1049C000E10601969093E1068093E0060A97D9F5F7
:1049D0001092E1061092E0066CE675E08FEF96E02B
:1049E0000E94A50860E080E00E9459196FE875E018
:1049F0008EEE97E00E94B60961E082E00E945919AC
:104A0000BE016D5F7E4F8EEE97E00E94B8096FED9C
:104A10008EEE97E00E94CD0869E974E08EEE97E093
:104A20000E94B60968EB7BE080E090E00E94280DD0
:104A30008EEE97E00E94C60E1092E20604C010921D
:104A4000E1061092E00620E030E040E251E4C301CC
:104A5000B2010E94A32F18160CF047C08091DF0608
:104A6000882309F442C08091DD069091DE0601960C
:104A70009093DE068093DD060A97D9F51092DE0644
:104A80001092DD0660EA75E08FEF96E00E94A508BF
:104A900060E080E00E94591963EC75E08EEE97E0CB
:104AA0000E94B60961E082E00E945919BE016D5F63
:104AB0007E4F8EEE97E00E94B8096FED8EEE97E084
:104AC0000E94CD0869E974E08EEE97E00E94B60975
:104AD00068EB7BE080E090E00E94280D8EEE97E08E
:104AE0000E94C60E1092DF0604C01092DE061092DD
:104AF000DD0620E030E040EA51E4C501B4010E9447
:104B0000162D87FF41C08091DC068823E9F1809152
:104B1000DA069091DB0601969093DB068093DA0625
:104B20000A97B1F51092DB061092DA0663ED75E094
:104B30008FEF96E00E94A50860E080E00E9459197E
:104B400062EF75E08EEE97E00E94B60961E082E0C8
:104B50000E945919BE0163507F4F8EEE97E00E946C
:104B6000B8096CE175E08EEE97E00E94B60968EB3B
:104B70007BE080E090E00E94280D8EEE97E00E949E
:104B8000C60E1092DC0604C01092DB061092DA0604
:104B900020E030E040E251E4C501B4010E94A32FBF
:104BA00018160CF041C08091D9068823E9F1809154
:104BB000D7069091D80601969093D8068093D70691
:104BC0000A97B1F51092D8061092D70663ED75E0FA
:104BD0008FEF96E00E94A50860E080E00E945919DE
:104BE00062EF75E08EEE97E00E94B60961E082E028
:104BF0000E945919BE0163507F4F8EEE97E00E94CC
:104C0000B8096CE175E08EEE97E00E94B60968EB9A
:104C10007BE080E090E00E94280D8EEE97E00E94FD
:104C2000C60E1092D90604C01092D8061092D7066C
:104C3000CE018D5F9E4F0E94BB04CE0183509F4FDB
:104C40000E94BB0464E976E08FEF96E00E94A5081D
:104C50000E94A219CE018F5D9E4F0E94BB04CE011F
:104C6000895D9E4F0E94BB04CE01835D9E4F0E94D2
:104C7000BB04CE018D5C9E4F0E94BB04CE01875CBD
:104C80009E4F0E94BB04CE01815C9E4F0E94BB04DC
:104C9000CE018B5B9E4F0E94BB04CE01855B9E4F75
:104CA0000E94BB04CE018F5A9E4F0E94BB04CE01CE
:104CB00001960E947413CE018B5A9F4F0E94741369
:104CC00021CB0E94A219CE01895A9E4F0E94BB049B
:104CD000CE0187559F4F0E947413C25ADE4F6881E0
:104CE000CE55D14070E080E090E00E941B2D609393
:104CF000E7067093E8068093E9069093EA06C35AA4
:104D0000DE4F6881CD55D14070E080E090E00E9498
:104D10001B2D6093E3067093E4068093E506909361
:104D2000E6063BC04AE06DE571E0CE0101960E94C7
:104D3000FE046CE571E0CE018B5A9F4F0E943F0547
:104D400062E076E0CE0187559F4F0E943F05CE017D
:104D500087559F4F0E94BB04CE018B5A9F4F0E94E4
:104D6000BB04CE0101960E94BB048EEE97E00E9428
:104D7000C60E60E080E00E9459196FE176E08EEE89
:104D800097E00E94B60961E084E00E9459196FE241
:104D900076E08EEE97E00E94B609EAEAF3E0E4914D
:104DA00020917B00E3FB222420F8312CC10135E067
:104DB000880F991F3A95E1F7922F9F7D892B809359
:104DC0007B00E770E064E0937C0080917A0080646F
:104DD00080937A0080917A0086FDFCCF80917800E4
:104DE0002091790090E0922B9093EC068093EB0653
:104DF000893EB3E09B078CF4823391058CF0833CB1
:104E000091058CF08C37E1E09E0784F08B32F2E064
:104E10009F077CF0863193407CF085E090E00EC0E7
:104E200080E090E00BC081E090E008C082E090E07C
:104E300005C083E090E002C084E090E09093EE062D
:104E40008093ED068130910509F44DC044F5892B1E
:104E500009F0A6C08EEE97E00E94C60E60E080E0EA
:104E60000E9459196AE476E08EEE97E00E94B60936
:104E700084E690E00E946E1961E080E00E9459197A
:104E800066E576E08EEE97E00E94B60980E090E05D
:104E90000E946E196CEA7DE080E090E07BC0823079
:104EA000910509F446C0039709F07AC08EEE97E0A9
:104EB0000E94C60E60E085E00E94591968E376E022
:104EC0008EEE97E00E94B60961E082E00E945919D7
:104ED0006EE376E08EEE97E00E94B60968EB7BE029
:104EE00080E090E057C060E080E00E94591962E6DF
:104EF00076E08EEE97E00E94B6098FE090E00E9487
:104F00006E196FED8EEE97E00E94CD0869E974E0AE
:104F10008EEE97E00E94B60961E080E00E94591988
:104F20006EE676E08EEE97E00E94B60984E190E0AE
:104F300025C060E080E00E9459196AE776E08EEEB5
:104F400097E00E94B6098AE090E00E946E196FED2A
:104F50008EEE97E00E94CD0869E974E08EEE97E04E
:104F60000E94B60961E080E00E94591966E876E087
:104F70008EEE97E00E94B6098AE090E00E946E19DA
:104F80006CE175E08EEE97E00E94B60968E873E187
:104F900080E090E00E94280D8EEE97E00E94C60E01
:104FA0000E94C20A0C942E1DCF92DF92EF92FF92C4
:104FB0000F931F93CF93DF931F92CDB7DEB7182FB8
:104FC000062FE42E862F880F8E5F99830E948B0216
:104FD00083E00E948B02F12EC12E9981D92E8C2D57
:104FE0008F19801798F4F601E7FE02C0849101C082
:104FF00080810E948B02182F80E00E948B02812307
:10500000FFEFCF1ADF0A8111EACF01C081E00F90D4
:10501000DF91CF911F910F91FF90EF90DF90CF9094
:105020000895CF93DF93E7E2F8E082EE91E0918379
:1050300080831282138214821582E1E5F7E01382E5
:10504000128248EE53E060E070E04483558366834B
:10505000778326E831E0318320832DEC30E03587FB
:1050600024872CEC30E03787268728EC30E0318B22
:10507000208B29EC30E0338B228B2AEC30E0358B0F
:10508000248B2EEC30E0378B268B118E128E138EF4
:10509000148EAFEFB6E013961C921E9212971496E0
:1050A0004D935D936D937C93179728E931E01196AA
:1050B0003C932E932FEF3FEF1D963C932E931C971E
:1050C000A6E0B8E0B0935007A0934F07CDE2D8E038
:1050D000998388831A821B821C821D82C3E3D8E0D5
:1050E000998388831A821B821C821D821C921696C9
:1050F000FC93EE93159717961C92179718961C928F
:1051000018971A96FC93EE931997E9E3F8E09183C8
:1051100080831282138214821582E1E1F8E0138207
:10512000128288EC91E091838083B583A48383EB22
:1051300095E19783868310861186EEEEF7E0138261
:1051400012828CEB91E0918380838CE084838FEFDB
:1051500085838BE0868385E0878384E0808783E096
:10516000818782E0828713861486158616861786C5
:1051700061E0CF01DF91CF910C946218EF920F9311
:105180001F93CF93DF93E80147FD02C034E001C0D5
:1051900034E1E42F440FFF0BF7FF03C0F195E195D5
:1051A000F109E32E022F2E2FAE010E942229CE01FB
:1051B000DF91CF911F910F91EF9008956627772788
:1051C0000C94B02AFB01DC0105900D920020E1F760
:1051D0000895FC0105900020E9F7809590958E0FC9
:1051E0009F1F08954532510520F4423010F00C9471
:1051F000FD28FB011082CB010895BB274A3031F412
:10520000992322F4BDE2909581959F4F0C94092932
:10521000BB27FB015527AA27880F991FAA1FA41790
:1052200010F0A41B83955051B9F7A05DAA3308F084
:10523000A95DA193009779F7B111B1931192CB01B8
:105240000C94062D4F925F926F927F929F92AF9235
:10525000BF92CF92DF92EF92FF920F931F93CF9363
:10526000DF93CDB7DEB729970FB6F894DEBF0FBE38
:10527000CDBF6A01122FB02E2BE3201720F0FF24A0
:10528000F394F00E02C0BCE3FB2E0F2D27E0AE011D
:105290004F5F5F4F0E940D2CAC018981982F997050
:1052A000913031F0E1FC06C0E0FE06C090E205C09E
:1052B0009DE203C09BE201C090E0EE2DE07183FF10
:1052C0003CC0911102C083E001C084E0811718F452
:1052D000212F281B01C020E0E1110BC0F601822F15
:1052E00030E2882319F031938150FBCFC20ED11CDC
:1052F00020E0992329F0D6019C93F60131966F01A5
:10530000C6010396E2FE0AC03EE4D6013C9341E4A6
:1053100011964C93119712963C9306C03EE6F60107
:10532000308341E641833283FC01322F40E2332354
:1053300009F442C041933150FACF82FF44C0911129
:1053400002C083E001C084E0811718F4212F281BDC
:1053500001C020E0E1110BC0F601822F30E288236A
:1053600019F031938150FBCFC20ED11C20E099235C
:1053700029F0D6019C93F60131966F01C601039680
:10538000E2FE0BC039E4D6013C933EE411963C9317
:10539000119736E412963C9307C039E6F601308344
:1053A0003EE6318336E63283FC01322F40E233237E
:1053B00019F041933150FBCFFC01E20FF11D108237
:1053C0008EEF9FEFB7C0F1E0911101C0F0E06F2FB9
:1053D00070E01416150624F49A012F5F3F4F02C0A7
:1053E00021E030E0260F371FBB2029F06B2D70E045
:1053F0006F5F7F4F02C060E070E0260F371F612FA4
:1054000070E0261737071CF4121B212F01C020E083
:105410003E2D387159F4D601322F60E2332319F052
:105420006D933150FBCFC20ED11C20E0FF2331F031
:10543000D6019C93B6016F5F7F4F6B01E1110BC0EA
:10544000F601922F30E3992319F031939150FBCF5D
:10545000C20ED11C20E09F2D940F3A81782F7071DD
:10546000A72E84FF03C0313309F49150191624F498
:10547000993018F098E001C091E0E42F852F57FF94
:1054800002C0E0E080E06E2F782FE0E0F0E0AEE2D6
:105490009A2E3A01691A71082A01461A570A0B2DE9
:1054A00010E01195019511096F3F8FEF780729F4EE
:1054B000D6019C92C60101966C014617570784F0ED
:1054C000661677066CF47F01E40CF51CA1E0B0E0F1
:1054D000AC0FBD1FEA0EFB1ED7011196BC9002C097
:1054E00090E3B92E615071093196C60101967C0195
:1054F0006017710724F0D601BC926C01D5CF6417F8
:10550000750741F4363320F4353321F4A11002C07D
:1055100081E3B82EF601B082F701822F90E2882352
:1055200019F091938150FBCFF701E20FF11D10822A
:1055300080E090E029960FB6F894DEBF0FBECDBF95
:10554000DF91CF911F910F91FF90EF90DF90CF905F
:10555000BF90AF909F907F906F905F904F90089515
:10556000A0E0B0E0E6EBFAE20C944C2EEC017B01FB
:105570006115710519F0DB018D939C938E010F5F0E
:105580001F4F7880872D90E00E94E52C892B11F029
:10559000E801F4CFBDE27B1205C00F5F1F4F798099
:1055A000C1E008C0EBE27E1204C08E010E5F1F4F07
:1055B0007980C0E06801F1E0CF1AD10843E050E003
:1055C00062ED70E0C6010E94EE2C892BF1F46801B7
:1055D00022E0C20ED11C45E050E06DEC70E0C60147
:1055E0000E94EE2C892B21F4680187E0C80ED11CA3
:1055F000E114F10419F0D701CD92DC92C111FFC082
:1056000060E070E080E89FE703C143E050E06AECAF
:1056100070E0C6010E94EE2C892B51F4E114F104D4
:1056200009F4F2C00E5F1F4FF70111830083ECC035
:10563000680160E070E0CB0100E010E0F601D0ED21
:10564000D70DDA3058F52C2F2260622E2C2F2870BF
:10565000C2FF05C0211128C00F5F1F4F25C02223A4
:1056600011F001501109A5E0B0E09B01AC010E94CE
:105670003D2E4B015C01880C991CAA1CBB1CC5016A
:10568000B4016D0F711D811D911D6839A9E97A075B
:105690008A07A9E19A0740F0C66005C0DE3F51F4D1
:1056A000C3FD44C0C8606C2EBFEFCB1ADB0A70800C
:1056B000C62DC4CF2D2F2F7D2531C1F540814D3210
:1056C00011F4C06106C04B3221F0319621E030E088
:1056D00006C03296D60111964C9122E030E0A0ED42
:1056E000A40FAA3018F0E21BF30B20C040E050E0FA
:1056F0004038BCE05B075CF49A01220F331F220F95
:10570000331F420F531F440F551F4A0F511D31962F
:10571000DF0111972C91A0EDA20FAA3048F3C4FF2E
:1057200003C0519541955109040F151FC1FF07C0D2
:10573000E114F10421F03197D701ED93FC930E941D
:105740001B2DC370C33019F06B017C0106C06B01C7
:105750007C01F7FAF094F7F8F09420E030E0A9012A
:10576000C701B6010E94162D882309F445C017FF12
:1057700006C0119501951109C9EED0E002C0C1E043
:10578000D1E05E01B8E1AB1AB1084601BE2DAF2DE4
:1057900090E2E92EF12C0E151F0584F0FE012591F3
:1057A000359145915491B4018B2F9A2F0E947C2DF5
:1057B0004B01B82FA92F0E191F09EDCF2497F5948F
:1057C000E794CA15DB0539F76401EB2EFA2E8E2D0E
:1057D000880F8F2D881F8F3F49F020E030E0A9010E
:1057E000C701B6010E94162D811106C082E290E029
:1057F0009093400880933F08C701B60109C060E05C
:1058000070E080E89FEF04C060E070E080EC9FE70C
:10581000CDB7DEB7EEE00C94682E283008F027E014
:105820003327DA01990F311D87FD916000966105DC
:10583000710539F432602E5F3D9330E32A95E1F72C
:1058400008959F3F30F080387105610509F03C5F95
:105850003C5F3D93913008F08068911DDF93CF93BA
:105860001F930F93FF92EF92192F987F9695E92F30
:1058700096959695E90FFF27E15AFE4F9927332712
:10588000EE24FF24A701E70105900894079428F46B
:10589000360FE71EF81E491F511D660F771F881F20
:1058A000991F0694A1F70590079428F4E70EF81EB7
:1058B000491F561FC11D770F881F991F661F069429
:1058C000A1F70590079428F4F80E491F561FC71F2B
:1058D000D11D880F991F661F771F0694A1F70590A9
:1058E000079420F4490F561FC71FD81F990F661F32
:1058F000771F881F0694A9F784911095177041F0BF
:10590000D695C79557954795F794E7941A95C1F79B
:10591000E5E0F1E0689415901591359165919591C8
:1059200005907FE27395E118F10A430B560BC90B02
:10593000D009C0F7E10CF11E431F561FC91FD01D2F
:105940007EF4703311F48A95E6CFE894015030F07C
:10595000080F0AF40027021708F4202F2395022FBE
:105960007A3328F079E37D932A95E9F710C07D9387
:105970002A9589F606949795679537951795179404
:10598000E118F10A430B560BC90BD00998F0239587
:105990007E9173957A3308F070E37C932013B8F707
:1059A0007E9170617D9330F0839571E37D9370E318
:1059B0002A95E1F71124EF90FF900F911F91CF915D
:1059C000DF91992787FD9095089591110C94E92D09
:1059D000803219F089508550C8F70895FB01DC0129
:1059E0004150504088F08D9181341CF08B350CF47F
:1059F000805E659161341CF06B350CF4605E861B33
:105A0000611171F3990B0895881BFCCFDC01FC0137
:105A1000672F71917723E1F7329704C07C916D93E2
:105A200070836291AE17BF07C8F308950E94582D86
:105A300008F481E00895E89409C097FB3EF490953E
:105A40008095709561957F4F8F4F9F4F9923A9F057
:105A5000F92F96E9BB279395F695879577956795E6
:105A6000B795F111F8CFFAF4BB0F11F460FF1BC02A
:105A70006F5F7F4F8F4F9F4F16C0882311F096E9BD
:105A800011C0772321F09EE8872F762F05C066236B
:105A900071F096E8862F70E060E02AF09A95660F24
:105AA000771F881FDAF7880F9695879597F90895DD
:105AB000990F0008550FAA0BE0E8FEEF161617061F
:105AC000E807F907C0F012161306E407F50798F087
:105AD000621B730B840B950B39F40A2661F0232BA0
